{
  "abi": [
    {
      "inputs": [
        {
          "internalType": "address",
          "name": "",
          "type": "address"
        }
      ],
      "name": "addressToIndex",
      "outputs": [
        {
          "internalType": "uint256",
          "name": "",
          "type": "uint256"
        }
      ],
      "stateMutability": "view",
      "type": "function"
    },
    {
      "inputs": [
        {
          "internalType": "uint256",
          "name": "_storageIndex",
          "type": "uint256"
        }
      ],
      "name": "callAdminReleaseAllPayments",
      "outputs": [],
      "stateMutability": "nonpayable",
      "type": "function"
    },
    {
      "inputs": [
        {
          "internalType": "uint256",
          "name": "_storageIndex",
          "type": "uint256"
        }
      ],
      "name": "callGetBalance",
      "outputs": [
        {
          "internalType": "uint256",
          "name": "",
          "type": "uint256"
        }
      ],
      "stateMutability": "view",
      "type": "function"
    },
    {
      "inputs": [
        {
          "internalType": "uint256",
          "name": "_storageIndex",
          "type": "uint256"
        }
      ],
      "name": "callGetContractAddress",
      "outputs": [
        {
          "internalType": "address",
          "name": "",
          "type": "address"
        }
      ],
      "stateMutability": "view",
      "type": "function"
    },
    {
      "inputs": [
        {
          "internalType": "uint256",
          "name": "_storageIndex",
          "type": "uint256"
        }
      ],
      "name": "callGetOwner",
      "outputs": [
        {
          "internalType": "address",
          "name": "",
          "type": "address"
        }
      ],
      "stateMutability": "view",
      "type": "function"
    },
    {
      "inputs": [
        {
          "internalType": "uint256",
          "name": "_storageIndex",
          "type": "uint256"
        }
      ],
      "name": "callGetPayGroup",
      "outputs": [
        {
          "internalType": "address[]",
          "name": "",
          "type": "address[]"
        }
      ],
      "stateMutability": "view",
      "type": "function"
    },
    {
      "inputs": [
        {
          "internalType": "uint256",
          "name": "_storageIndex",
          "type": "uint256"
        }
      ],
      "name": "callGetPayRatio",
      "outputs": [
        {
          "internalType": "uint256[]",
          "name": "",
          "type": "uint256[]"
        }
      ],
      "stateMutability": "view",
      "type": "function"
    },
    {
      "inputs": [
        {
          "internalType": "uint256",
          "name": "_storageIndex",
          "type": "uint256"
        }
      ],
      "name": "callReleaseOwedPayment",
      "outputs": [],
      "stateMutability": "nonpayable",
      "type": "function"
    },
    {
      "inputs": [],
      "name": "contractsStored",
      "outputs": [
        {
          "internalType": "uint256",
          "name": "",
          "type": "uint256"
        }
      ],
      "stateMutability": "view",
      "type": "function"
    },
    {
      "inputs": [
        {
          "internalType": "address[]",
          "name": "_payGroup",
          "type": "address[]"
        },
        {
          "internalType": "uint256[]",
          "name": "_payOutRatio",
          "type": "uint256[]"
        }
      ],
      "name": "createSmartSplitterContract",
      "outputs": [],
      "stateMutability": "nonpayable",
      "type": "function"
    },
    {
      "inputs": [
        {
          "internalType": "uint256",
          "name": "_storageIndex",
          "type": "uint256"
        }
      ],
      "name": "getAddressFromIndex",
      "outputs": [
        {
          "internalType": "address",
          "name": "",
          "type": "address"
        }
      ],
      "stateMutability": "view",
      "type": "function"
    },
    {
      "inputs": [
        {
          "internalType": "address",
          "name": "_address",
          "type": "address"
        }
      ],
      "name": "getIndexFromAddress",
      "outputs": [
        {
          "internalType": "uint256",
          "name": "",
          "type": "uint256"
        }
      ],
      "stateMutability": "view",
      "type": "function"
    },
    {
      "inputs": [
        {
          "internalType": "uint256",
          "name": "",
          "type": "uint256"
        }
      ],
      "name": "smartSplitterArray",
      "outputs": [
        {
          "internalType": "contract SmartSplitter",
          "name": "",
          "type": "address"
        }
      ],
      "stateMutability": "view",
      "type": "function"
    }
  ],
  "bytecode": "608060405234801561001057600080fd5b506122ee806100206000396000f3fe60806040523480156200001157600080fd5b5060043610620000e05760003560e01c806353a89b2c11620000975780639879223c116200006e5780639879223c1462000207578063b182c183146200021e578063f667e0aa1462000235578063fdc3f040146200025857600080fd5b806353a89b2c14620001c15780635c9ce13214620001d85780636c0b56e214620001e157600080fd5b8063059e8c6814620000e55780630a7263b014620001195780631ddc3ab214620001305780632d1cf67314620001495780632e44a4571462000160578063384539c51462000186575b600080fd5b620000fc620000f636600462000712565b6200026f565b6040516001600160a01b0390911681526020015b60405180910390f35b620000fc6200012a36600462000712565b6200029a565b620001476200014136600462000712565b620002cc565b005b620000fc6200015a36600462000712565b62000347565b620001776200017136600462000712565b620003d9565b60405162000110919062000769565b620001b2620001973660046200079e565b6001600160a01b031660009081526001602052604090205490565b60405190815260200162000110565b62000147620001d2366004620008a2565b62000468565b600054620001b2565b620001f8620001f236600462000712565b62000525565b604051620001109190620009ad565b620001b26200021836600462000712565b620005b4565b620000fc6200022f36600462000712565b6200063f565b620001b2620002463660046200079e565b60016020526000908152604090205481565b620001476200026936600462000712565b620006a5565b600081815481106200028057600080fd5b6000918252602090912001546001600160a01b0316905081565b6000808281548110620002b157620002b1620009c2565b6000918252602090912001546001600160a01b031692915050565b60008181548110620002e257620002e2620009c2565b60009182526020822001546040805163113f2a8360e11b815290516001600160a01b039092169263227e55069260048084019382900301818387803b1580156200032b57600080fd5b505af115801562000340573d6000803e3d6000fd5b5050505050565b60008082815481106200035e576200035e620009c2565b6000918252602091829020015460408051631127a41d60e31b815290516001600160a01b039092169263893d20e8926004808401938290030181865afa158015620003ad573d6000803e3d6000fd5b505050506040513d601f19601f82011682018060405250810190620003d39190620009d8565b92915050565b606060008281548110620003f157620003f1620009c2565b6000918252602082200154604080516302da8ac960e61b815290516001600160a01b039092169263b6a2b240926004808401938290030181865afa1580156200043e573d6000803e3d6000fd5b505050506040513d6000823e601f3d908101601f19168201604052620003d39190810190620009f8565b600082826040516200047a9062000704565b6200048792919062000a92565b604051809103906000f080158015620004a4573d6000803e3d6000fd5b5060008054600180820183558280527f290decd9548b62a8d60345a988386fc84ba6bc95484008f6362f93160ef3e56390910180546001600160a01b0319166001600160a01b0385161790558154929350909162000503919062000ac4565b6001600160a01b03909216600090815260016020526040902091909155505050565b6060600082815481106200053d576200053d620009c2565b600091825260208220015460408051631d643ff360e21b815290516001600160a01b0390921692637590ffcc926004808401938290030181865afa1580156200058a573d6000803e3d6000fd5b505050506040513d6000823e601f3d908101601f19168201604052620003d3919081019062000aea565b6000808281548110620005cb57620005cb620009c2565b6000918252602091829020015460408051629032ff60e51b815290516001600160a01b03909216926312065fe0926004808401938290030181865afa15801562000619573d6000803e3d6000fd5b505050506040513d601f19601f82011682018060405250810190620003d3919062000b84565b6000808281548110620006565762000656620009c2565b600091825260209182902001546040805163032a2c5d60e41b815290516001600160a01b03909216926332a2c5d0926004808401938290030181865afa158015620003ad573d6000803e3d6000fd5b60008181548110620006bb57620006bb620009c2565b600091825260208220015460408051630269fecb60e41b815290516001600160a01b039092169263269fecb09260048084019382900301818387803b1580156200032b57600080fd5b61171a8062000b9f83390190565b6000602082840312156200072557600080fd5b5035919050565b600081518084526020808501945080840160005b838110156200075e5781518752958201959082019060010162000740565b509495945050505050565b6020815260006200077e60208301846200072c565b9392505050565b6001600160a01b03811681146200079b57600080fd5b50565b600060208284031215620007b157600080fd5b81356200077e8162000785565b634e487b7160e01b600052604160045260246000fd5b604051601f8201601f1916810167ffffffffffffffff81118282101715620008005762000800620007be565b604052919050565b600067ffffffffffffffff821115620008255762000825620007be565b5060051b60200190565b600082601f8301126200084157600080fd5b813560206200085a620008548362000808565b620007d4565b82815260059290921b840181019181810190868411156200087a57600080fd5b8286015b848110156200089757803583529183019183016200087e565b509695505050505050565b60008060408385031215620008b657600080fd5b823567ffffffffffffffff80821115620008cf57600080fd5b818501915085601f830112620008e457600080fd5b81356020620008f7620008548362000808565b82815260059290921b840181019181810190898411156200091757600080fd5b948201945b8386101562000942578535620009328162000785565b825294820194908201906200091c565b965050860135925050808211156200095957600080fd5b5062000968858286016200082f565b9150509250929050565b600081518084526020808501945080840160005b838110156200075e5781516001600160a01b03168752958201959082019060010162000986565b6020815260006200077e602083018462000972565b634e487b7160e01b600052603260045260246000fd5b600060208284031215620009eb57600080fd5b81516200077e8162000785565b6000602080838503121562000a0c57600080fd5b825167ffffffffffffffff81111562000a2457600080fd5b8301601f8101851362000a3657600080fd5b805162000a47620008548262000808565b81815260059190911b8201830190838101908783111562000a6757600080fd5b928401925b8284101562000a875783518252928401929084019062000a6c565b979650505050505050565b60408152600062000aa7604083018562000972565b828103602084015262000abb81856200072c565b95945050505050565b60008282101562000ae557634e487b7160e01b600052601160045260246000fd5b500390565b6000602080838503121562000afe57600080fd5b825167ffffffffffffffff81111562000b1657600080fd5b8301601f8101851362000b2857600080fd5b805162000b39620008548262000808565b81815260059190911b8201830190838101908783111562000b5957600080fd5b928401925b8284101562000a8757835162000b748162000785565b8252928401929084019062000b5e565b60006020828403121562000b9757600080fd5b505191905056fe60806040526040516200171a3803806200171a83398101604081905262000026916200052f565b818180518251146200009a5760405162461bcd60e51b815260206004820152603260248201527f5061796d656e7453706c69747465723a2070617965657320616e6420736861726044820152710cae640d8cadccee8d040dad2e6dac2e8c6d60731b60648201526084015b60405180910390fd5b6000825111620000ed5760405162461bcd60e51b815260206004820152601a60248201527f5061796d656e7453706c69747465723a206e6f20706179656573000000000000604482015260640162000091565b60005b82518110156200015957620001448382815181106200011357620001136200060d565b60200260200101518383815181106200013057620001306200060d565b6020026020010151620001a260201b60201c565b80620001508162000639565b915050620000f0565b5050600980546001600160a01b03191633179055508151620001839060079060208501906200038e565b50805162000199906008906020840190620003f8565b50505062000672565b6001600160a01b0382166200020f5760405162461bcd60e51b815260206004820152602c60248201527f5061796d656e7453706c69747465723a206163636f756e74206973207468652060448201526b7a65726f206164647265737360a01b606482015260840162000091565b60008111620002615760405162461bcd60e51b815260206004820152601d60248201527f5061796d656e7453706c69747465723a20736861726573206172652030000000604482015260640162000091565b6001600160a01b03821660009081526002602052604090205415620002dd5760405162461bcd60e51b815260206004820152602b60248201527f5061796d656e7453706c69747465723a206163636f756e7420616c726561647960448201526a206861732073686172657360a81b606482015260840162000091565b60048054600181019091557f8a35acfbc15ff81a39ae7d344fd709f28e8600b4aa8c65c6b64bfe7fe36bd19b0180546001600160a01b0319166001600160a01b0384169081179091556000908152600260205260408120829055546200034590829062000657565b600055604080516001600160a01b0384168152602081018390527f40c340f65e17194d14ddddb073d3c9f888e3cb52b5aae0c6c7706b4fbc905fac910160405180910390a15050565b828054828255906000526020600020908101928215620003e6579160200282015b82811115620003e657825182546001600160a01b0319166001600160a01b03909116178255602090920191600190910190620003af565b50620003f492915062000436565b5090565b828054828255906000526020600020908101928215620003e6579160200282015b82811115620003e657825182559160200191906001019062000419565b5b80821115620003f4576000815560010162000437565b634e487b7160e01b600052604160045260246000fd5b604051601f8201601f191681016001600160401b03811182821017156200048e576200048e6200044d565b604052919050565b60006001600160401b03821115620004b257620004b26200044d565b5060051b60200190565b600082601f830112620004ce57600080fd5b81516020620004e7620004e18362000496565b62000463565b82815260059290921b840181019181810190868411156200050757600080fd5b8286015b848110156200052457805183529183019183016200050b565b509695505050505050565b600080604083850312156200054357600080fd5b82516001600160401b03808211156200055b57600080fd5b818501915085601f8301126200057057600080fd5b8151602062000583620004e18362000496565b82815260059290921b84018101918181019089841115620005a357600080fd5b948201945b83861015620005da5785516001600160a01b0381168114620005ca5760008081fd5b82529482019490820190620005a8565b91880151919650909350505080821115620005f457600080fd5b506200060385828601620004bc565b9150509250929050565b634e487b7160e01b600052603260045260246000fd5b634e487b7160e01b600052601160045260246000fd5b600060001982141562000650576200065062000623565b5060010190565b600082198211156200066d576200066d62000623565b500190565b61109880620006826000396000f3fe60806040526004361061010d5760003560e01c8063893d20e811610095578063b6a2b24011610064578063b6a2b24014610321578063ce7c2ac214610343578063d0e30db01461019d578063d79779b214610379578063e33b7de3146103af57600080fd5b8063893d20e81461028d5780638b83209b146102ab5780638da5cb5b146102cb5780639852595c146102eb57600080fd5b806332a2c5d0116100dc57806332a2c5d0146101c95780633a98ef39146101f0578063406072a91461020557806348b750441461024b5780637590ffcc1461026b57600080fd5b806312065fe01461015b578063191655871461017d578063227e55061461019f578063269fecb0146101b457600080fd5b36610156577f6ef95f06320e7a25a04a175ca677b7052bdd97131872c2192525a629f51be77033604080516001600160a01b0390921682523460208301520160405180910390a1005b600080fd5b34801561016757600080fd5b50475b6040519081526020015b60405180910390f35b34801561018957600080fd5b5061019d610198366004610d6c565b6103c4565b005b3480156101ab57600080fd5b5061019d6104fb565b3480156101c057600080fd5b5061019d6105b5565b3480156101d557600080fd5b50305b6040516001600160a01b039091168152602001610174565b3480156101fc57600080fd5b5060005461016a565b34801561021157600080fd5b5061016a610220366004610d89565b6001600160a01b03918216600090815260066020908152604080832093909416825291909152205490565b34801561025757600080fd5b5061019d610266366004610d89565b6106b2565b34801561027757600080fd5b5061028061088b565b6040516101749190610dc2565b34801561029957600080fd5b506009546001600160a01b03166101d8565b3480156102b757600080fd5b506101d86102c6366004610e0f565b6108ed565b3480156102d757600080fd5b506009546101d8906001600160a01b031681565b3480156102f757600080fd5b5061016a610306366004610d6c565b6001600160a01b031660009081526003602052604090205490565b34801561032d57600080fd5b5061033661091d565b6040516101749190610e28565b34801561034f57600080fd5b5061016a61035e366004610d6c565b6001600160a01b031660009081526002602052604090205490565b34801561038557600080fd5b5061016a610394366004610d6c565b6001600160a01b031660009081526005602052604090205490565b3480156103bb57600080fd5b5060015461016a565b6001600160a01b0381166000908152600260205260409020546104025760405162461bcd60e51b81526004016103f990610e60565b60405180910390fd5b600061040d60015490565b6104179047610ebc565b90506000610444838361043f866001600160a01b031660009081526003602052604090205490565b610974565b9050806104635760405162461bcd60e51b81526004016103f990610ed4565b6001600160a01b0383166000908152600360205260408120805483929061048b908490610ebc565b9250508190555080600160008282546104a49190610ebc565b909155506104b4905083826109b9565b604080516001600160a01b0385168152602081018390527fdf20fd1e76bc69d672e4814fafb2c449bba3a5369d8359adf9e05e6fde87b056910160405180910390a1505050565b6009546001600160a01b0316331461051257600080fd5b60005b6007548110156105b257306001600160a01b031663191655876007838154811061054157610541610f1f565b60009182526020909120015460405160e083901b6001600160e01b03191681526001600160a01b039091166004820152602401600060405180830381600087803b15801561058e57600080fd5b505af192505050801561059f575060015b50806105aa81610f35565b915050610515565b50565b6105bd610ad7565b15156001146105cb57600080fd5b6000805b60075481101561062757336001600160a01b0316600782815481106105f6576105f6610f1f565b6000918252602090912001546001600160a01b03161415610615578091505b8061061f81610f35565b9150506105cf565b50306001600160a01b031663191655876007838154811061064a5761064a610f1f565b60009182526020909120015460405160e083901b6001600160e01b03191681526001600160a01b039091166004820152602401600060405180830381600087803b15801561069757600080fd5b505af11580156106ab573d6000803e3d6000fd5b5050505050565b6001600160a01b0381166000908152600260205260409020546106e75760405162461bcd60e51b81526004016103f990610e60565b6001600160a01b0382166000908152600560205260408120546040516370a0823160e01b81523060048201526001600160a01b038516906370a0823190602401602060405180830381865afa158015610744573d6000803e3d6000fd5b505050506040513d601f19601f820116820180604052508101906107689190610f50565b6107729190610ebc565b905060006107ab838361043f87876001600160a01b03918216600090815260066020908152604080832093909416825291909152205490565b9050806107ca5760405162461bcd60e51b81526004016103f990610ed4565b6001600160a01b03808516600090815260066020908152604080832093871683529290529081208054839290610801908490610ebc565b90915550506001600160a01b0384166000908152600560205260408120805483929061082e908490610ebc565b9091555061083f9050848483610b3f565b604080516001600160a01b038581168252602082018490528616917f3be5b7a71e84ed12875d241991c70855ac5817d847039e17a9d895c1ceb0f18a910160405180910390a250505050565b606060078054806020026020016040519081016040528092919081815260200182805480156108e357602002820191906000526020600020905b81546001600160a01b031681526001909101906020018083116108c5575b5050505050905090565b60006004828154811061090257610902610f1f565b6000918252602090912001546001600160a01b031692915050565b606060088054806020026020016040519081016040528092919081815260200182805480156108e357602002820191906000526020600020905b815481526020019060010190808311610957575050505050905090565b600080546001600160a01b03851682526002602052604082205483919061099b9086610f69565b6109a59190610f88565b6109af9190610faa565b90505b9392505050565b80471015610a095760405162461bcd60e51b815260206004820152601d60248201527f416464726573733a20696e73756666696369656e742062616c616e636500000060448201526064016103f9565b6000826001600160a01b03168260405160006040518083038185875af1925050503d8060008114610a56576040519150601f19603f3d011682016040523d82523d6000602084013e610a5b565b606091505b5050905080610ad25760405162461bcd60e51b815260206004820152603a60248201527f416464726573733a20756e61626c6520746f2073656e642076616c75652c207260448201527f6563697069656e74206d6179206861766520726576657274656400000000000060648201526084016103f9565b505050565b6000805b600754811015610b3757336001600160a01b031660078281548110610b0257610b02610f1f565b6000918252602090912001546001600160a01b03161415610b2557600191505090565b80610b2f81610f35565b915050610adb565b506000905090565b604080516001600160a01b03848116602483015260448083018590528351808403909101815260649092018352602080830180516001600160e01b031663a9059cbb60e01b17905283518085019094528084527f5361666545524332303a206c6f772d6c6576656c2063616c6c206661696c656490840152610ad292869291600091610bcf918516908490610c4c565b805190915015610ad25780806020019051810190610bed9190610fc1565b610ad25760405162461bcd60e51b815260206004820152602a60248201527f5361666545524332303a204552433230206f7065726174696f6e20646964206e6044820152691bdd081cdd58d8d9595960b21b60648201526084016103f9565b60606109af848460008585843b610ca55760405162461bcd60e51b815260206004820152601d60248201527f416464726573733a2063616c6c20746f206e6f6e2d636f6e747261637400000060448201526064016103f9565b600080866001600160a01b03168587604051610cc19190611013565b60006040518083038185875af1925050503d8060008114610cfe576040519150601f19603f3d011682016040523d82523d6000602084013e610d03565b606091505b5091509150610d13828286610d1e565b979650505050505050565b60608315610d2d5750816109b2565b825115610d3d5782518084602001fd5b8160405162461bcd60e51b81526004016103f9919061102f565b6001600160a01b03811681146105b257600080fd5b600060208284031215610d7e57600080fd5b81356109b281610d57565b60008060408385031215610d9c57600080fd5b8235610da781610d57565b91506020830135610db781610d57565b809150509250929050565b6020808252825182820181905260009190848201906040850190845b81811015610e035783516001600160a01b031683529284019291840191600101610dde565b50909695505050505050565b600060208284031215610e2157600080fd5b5035919050565b6020808252825182820181905260009190848201906040850190845b81811015610e0357835183529284019291840191600101610e44565b60208082526026908201527f5061796d656e7453706c69747465723a206163636f756e7420686173206e6f2060408201526573686172657360d01b606082015260800190565b634e487b7160e01b600052601160045260246000fd5b60008219821115610ecf57610ecf610ea6565b500190565b6020808252602b908201527f5061796d656e7453706c69747465723a206163636f756e74206973206e6f742060408201526a191d59481c185e5b595b9d60aa1b606082015260800190565b634e487b7160e01b600052603260045260246000fd5b6000600019821415610f4957610f49610ea6565b5060010190565b600060208284031215610f6257600080fd5b5051919050565b6000816000190483118215151615610f8357610f83610ea6565b500290565b600082610fa557634e487b7160e01b600052601260045260246000fd5b500490565b600082821015610fbc57610fbc610ea6565b500390565b600060208284031215610fd357600080fd5b815180151581146109b257600080fd5b60005b83811015610ffe578181015183820152602001610fe6565b8381111561100d576000848401525b50505050565b60008251611025818460208701610fe3565b9190910192915050565b602081526000825180602084015261104e816040850160208701610fe3565b601f01601f1916919091016040019291505056fea26469706673582212203369eb380db9be724cae7235649837492782f7f0d7c0d1d1988a0332f954ee4364736f6c634300080b0033a264697066735822122014168fdf3c54758d88ea4d81aab0a77b6a68fba4e5b179666342b0bbe5abbe8b64736f6c634300080b0033",
  "bytecodeSha1": "2a8ffa03528261039d2fb6380ae063dbc7c0e0a6",
  "compiler": {
    "evm_version": "istanbul",
    "optimizer": {
      "enabled": true,
      "runs": 200
    },
    "version": "0.8.11+commit.d7f03943"
  },
  "contractName": "SmartSplitterFactory",
  "language": "Solidity",
  "natspec": {
    "kind": "dev",
    "methods": {},
    "version": 1
  },
  "opcodes": "PUSH1 0x80 PUSH1 0x40 MSTORE CALLVALUE DUP1 ISZERO PUSH3 0x11 JUMPI PUSH1 0x0 DUP1 REVERT JUMPDEST POP PUSH1 0x4 CALLDATASIZE LT PUSH3 0xE0 JUMPI PUSH1 0x0 CALLDATALOAD PUSH1 0xE0 SHR DUP1 PUSH4 0x53A89B2C GT PUSH3 0x97 JUMPI DUP1 PUSH4 0x9879223C GT PUSH3 0x6E JUMPI DUP1 PUSH4 0x9879223C EQ PUSH3 0x207 JUMPI DUP1 PUSH4 0xB182C183 EQ PUSH3 0x21E JUMPI DUP1 PUSH4 0xF667E0AA EQ PUSH3 0x235 JUMPI DUP1 PUSH4 0xFDC3F040 EQ PUSH3 0x258 JUMPI PUSH1 0x0 DUP1 REVERT JUMPDEST DUP1 PUSH4 0x53A89B2C EQ PUSH3 0x1C1 JUMPI DUP1 PUSH4 0x5C9CE132 EQ PUSH3 0x1D8 JUMPI DUP1 PUSH4 0x6C0B56E2 EQ PUSH3 0x1E1 JUMPI PUSH1 0x0 DUP1 REVERT JUMPDEST DUP1 PUSH4 0x59E8C68 EQ PUSH3 0xE5 JUMPI DUP1 PUSH4 0xA7263B0 EQ PUSH3 0x119 JUMPI DUP1 PUSH4 0x1DDC3AB2 EQ PUSH3 0x130 JUMPI DUP1 PUSH4 0x2D1CF673 EQ PUSH3 0x149 JUMPI DUP1 PUSH4 0x2E44A457 EQ PUSH3 0x160 JUMPI DUP1 PUSH4 0x384539C5 EQ PUSH3 0x186 JUMPI JUMPDEST PUSH1 0x0 DUP1 REVERT JUMPDEST PUSH3 0xFC PUSH3 0xF6 CALLDATASIZE PUSH1 0x4 PUSH3 0x712 JUMP JUMPDEST PUSH3 0x26F JUMP JUMPDEST PUSH1 0x40 MLOAD PUSH1 0x1 PUSH1 0x1 PUSH1 0xA0 SHL SUB SWAP1 SWAP2 AND DUP2 MSTORE PUSH1 0x20 ADD JUMPDEST PUSH1 0x40 MLOAD DUP1 SWAP2 SUB SWAP1 RETURN JUMPDEST PUSH3 0xFC PUSH3 0x12A CALLDATASIZE PUSH1 0x4 PUSH3 0x712 JUMP JUMPDEST PUSH3 0x29A JUMP JUMPDEST PUSH3 0x147 PUSH3 0x141 CALLDATASIZE PUSH1 0x4 PUSH3 0x712 JUMP JUMPDEST PUSH3 0x2CC JUMP JUMPDEST STOP JUMPDEST PUSH3 0xFC PUSH3 0x15A CALLDATASIZE PUSH1 0x4 PUSH3 0x712 JUMP JUMPDEST PUSH3 0x347 JUMP JUMPDEST PUSH3 0x177 PUSH3 0x171 CALLDATASIZE PUSH1 0x4 PUSH3 0x712 JUMP JUMPDEST PUSH3 0x3D9 JUMP JUMPDEST PUSH1 0x40 MLOAD PUSH3 0x110 SWAP2 SWAP1 PUSH3 0x769 JUMP JUMPDEST PUSH3 0x1B2 PUSH3 0x197 CALLDATASIZE PUSH1 0x4 PUSH3 0x79E JUMP JUMPDEST PUSH1 0x1 PUSH1 0x1 PUSH1 0xA0 SHL SUB AND PUSH1 0x0 SWAP1 DUP2 MSTORE PUSH1 0x1 PUSH1 0x20 MSTORE PUSH1 0x40 SWAP1 KECCAK256 SLOAD SWAP1 JUMP JUMPDEST PUSH1 0x40 MLOAD SWAP1 DUP2 MSTORE PUSH1 0x20 ADD PUSH3 0x110 JUMP JUMPDEST PUSH3 0x147 PUSH3 0x1D2 CALLDATASIZE PUSH1 0x4 PUSH3 0x8A2 JUMP JUMPDEST PUSH3 0x468 JUMP JUMPDEST PUSH1 0x0 SLOAD PUSH3 0x1B2 JUMP JUMPDEST PUSH3 0x1F8 PUSH3 0x1F2 CALLDATASIZE PUSH1 0x4 PUSH3 0x712 JUMP JUMPDEST PUSH3 0x525 JUMP JUMPDEST PUSH1 0x40 MLOAD PUSH3 0x110 SWAP2 SWAP1 PUSH3 0x9AD JUMP JUMPDEST PUSH3 0x1B2 PUSH3 0x218 CALLDATASIZE PUSH1 0x4 PUSH3 0x712 JUMP JUMPDEST PUSH3 0x5B4 JUMP JUMPDEST PUSH3 0xFC PUSH3 0x22F CALLDATASIZE PUSH1 0x4 PUSH3 0x712 JUMP JUMPDEST PUSH3 0x63F JUMP JUMPDEST PUSH3 0x1B2 PUSH3 0x246 CALLDATASIZE PUSH1 0x4 PUSH3 0x79E JUMP JUMPDEST PUSH1 0x1 PUSH1 0x20 MSTORE PUSH1 0x0 SWAP1 DUP2 MSTORE PUSH1 0x40 SWAP1 KECCAK256 SLOAD DUP2 JUMP JUMPDEST PUSH3 0x147 PUSH3 0x269 CALLDATASIZE PUSH1 0x4 PUSH3 0x712 JUMP JUMPDEST PUSH3 0x6A5 JUMP JUMPDEST PUSH1 0x0 DUP2 DUP2 SLOAD DUP2 LT PUSH3 0x280 JUMPI PUSH1 0x0 DUP1 REVERT JUMPDEST PUSH1 0x0 SWAP2 DUP3 MSTORE PUSH1 0x20 SWAP1 SWAP2 KECCAK256 ADD SLOAD PUSH1 0x1 PUSH1 0x1 PUSH1 0xA0 SHL SUB AND SWAP1 POP DUP2 JUMP JUMPDEST PUSH1 0x0 DUP1 DUP3 DUP2 SLOAD DUP2 LT PUSH3 0x2B1 JUMPI PUSH3 0x2B1 PUSH3 0x9C2 JUMP JUMPDEST PUSH1 0x0 SWAP2 DUP3 MSTORE PUSH1 0x20 SWAP1 SWAP2 KECCAK256 ADD SLOAD PUSH1 0x1 PUSH1 0x1 PUSH1 0xA0 SHL SUB AND SWAP3 SWAP2 POP POP JUMP JUMPDEST PUSH1 0x0 DUP2 DUP2 SLOAD DUP2 LT PUSH3 0x2E2 JUMPI PUSH3 0x2E2 PUSH3 0x9C2 JUMP JUMPDEST PUSH1 0x0 SWAP2 DUP3 MSTORE PUSH1 0x20 DUP3 KECCAK256 ADD SLOAD PUSH1 0x40 DUP1 MLOAD PUSH4 0x113F2A83 PUSH1 0xE1 SHL DUP2 MSTORE SWAP1 MLOAD PUSH1 0x1 PUSH1 0x1 PUSH1 0xA0 SHL SUB SWAP1 SWAP3 AND SWAP3 PUSH4 0x227E5506 SWAP3 PUSH1 0x4 DUP1 DUP5 ADD SWAP4 DUP3 SWAP1 SUB ADD DUP2 DUP4 DUP8 DUP1 EXTCODESIZE ISZERO DUP1 ISZERO PUSH3 0x32B JUMPI PUSH1 0x0 DUP1 REVERT JUMPDEST POP GAS CALL ISZERO DUP1 ISZERO PUSH3 0x340 JUMPI RETURNDATASIZE PUSH1 0x0 DUP1 RETURNDATACOPY RETURNDATASIZE PUSH1 0x0 REVERT JUMPDEST POP POP POP POP POP JUMP JUMPDEST PUSH1 0x0 DUP1 DUP3 DUP2 SLOAD DUP2 LT PUSH3 0x35E JUMPI PUSH3 0x35E PUSH3 0x9C2 JUMP JUMPDEST PUSH1 0x0 SWAP2 DUP3 MSTORE PUSH1 0x20 SWAP2 DUP3 SWAP1 KECCAK256 ADD SLOAD PUSH1 0x40 DUP1 MLOAD PUSH4 0x1127A41D PUSH1 0xE3 SHL DUP2 MSTORE SWAP1 MLOAD PUSH1 0x1 PUSH1 0x1 PUSH1 0xA0 SHL SUB SWAP1 SWAP3 AND SWAP3 PUSH4 0x893D20E8 SWAP3 PUSH1 0x4 DUP1 DUP5 ADD SWAP4 DUP3 SWAP1 SUB ADD DUP2 DUP7 GAS STATICCALL ISZERO DUP1 ISZERO PUSH3 0x3AD JUMPI RETURNDATASIZE PUSH1 0x0 DUP1 RETURNDATACOPY RETURNDATASIZE PUSH1 0x0 REVERT JUMPDEST POP POP POP POP PUSH1 0x40 MLOAD RETURNDATASIZE PUSH1 0x1F NOT PUSH1 0x1F DUP3 ADD AND DUP3 ADD DUP1 PUSH1 0x40 MSTORE POP DUP2 ADD SWAP1 PUSH3 0x3D3 SWAP2 SWAP1 PUSH3 0x9D8 JUMP JUMPDEST SWAP3 SWAP2 POP POP JUMP JUMPDEST PUSH1 0x60 PUSH1 0x0 DUP3 DUP2 SLOAD DUP2 LT PUSH3 0x3F1 JUMPI PUSH3 0x3F1 PUSH3 0x9C2 JUMP JUMPDEST PUSH1 0x0 SWAP2 DUP3 MSTORE PUSH1 0x20 DUP3 KECCAK256 ADD SLOAD PUSH1 0x40 DUP1 MLOAD PUSH4 0x2DA8AC9 PUSH1 0xE6 SHL DUP2 MSTORE SWAP1 MLOAD PUSH1 0x1 PUSH1 0x1 PUSH1 0xA0 SHL SUB SWAP1 SWAP3 AND SWAP3 PUSH4 0xB6A2B240 SWAP3 PUSH1 0x4 DUP1 DUP5 ADD SWAP4 DUP3 SWAP1 SUB ADD DUP2 DUP7 GAS STATICCALL ISZERO DUP1 ISZERO PUSH3 0x43E JUMPI RETURNDATASIZE PUSH1 0x0 DUP1 RETURNDATACOPY RETURNDATASIZE PUSH1 0x0 REVERT JUMPDEST POP POP POP POP PUSH1 0x40 MLOAD RETURNDATASIZE PUSH1 0x0 DUP3 RETURNDATACOPY PUSH1 0x1F RETURNDATASIZE SWAP1 DUP2 ADD PUSH1 0x1F NOT AND DUP3 ADD PUSH1 0x40 MSTORE PUSH3 0x3D3 SWAP2 SWAP1 DUP2 ADD SWAP1 PUSH3 0x9F8 JUMP JUMPDEST PUSH1 0x0 DUP3 DUP3 PUSH1 0x40 MLOAD PUSH3 0x47A SWAP1 PUSH3 0x704 JUMP JUMPDEST PUSH3 0x487 SWAP3 SWAP2 SWAP1 PUSH3 0xA92 JUMP JUMPDEST PUSH1 0x40 MLOAD DUP1 SWAP2 SUB SWAP1 PUSH1 0x0 CREATE DUP1 ISZERO DUP1 ISZERO PUSH3 0x4A4 JUMPI RETURNDATASIZE PUSH1 0x0 DUP1 RETURNDATACOPY RETURNDATASIZE PUSH1 0x0 REVERT JUMPDEST POP PUSH1 0x0 DUP1 SLOAD PUSH1 0x1 DUP1 DUP3 ADD DUP4 SSTORE DUP3 DUP1 MSTORE PUSH32 0x290DECD9548B62A8D60345A988386FC84BA6BC95484008F6362F93160EF3E563 SWAP1 SWAP2 ADD DUP1 SLOAD PUSH1 0x1 PUSH1 0x1 PUSH1 0xA0 SHL SUB NOT AND PUSH1 0x1 PUSH1 0x1 PUSH1 0xA0 SHL SUB DUP6 AND OR SWAP1 SSTORE DUP2 SLOAD SWAP3 SWAP4 POP SWAP1 SWAP2 PUSH3 0x503 SWAP2 SWAP1 PUSH3 0xAC4 JUMP JUMPDEST PUSH1 0x1 PUSH1 0x1 PUSH1 0xA0 SHL SUB SWAP1 SWAP3 AND PUSH1 0x0 SWAP1 DUP2 MSTORE PUSH1 0x1 PUSH1 0x20 MSTORE PUSH1 0x40 SWAP1 KECCAK256 SWAP2 SWAP1 SWAP2 SSTORE POP POP POP JUMP JUMPDEST PUSH1 0x60 PUSH1 0x0 DUP3 DUP2 SLOAD DUP2 LT PUSH3 0x53D JUMPI PUSH3 0x53D PUSH3 0x9C2 JUMP JUMPDEST PUSH1 0x0 SWAP2 DUP3 MSTORE PUSH1 0x20 DUP3 KECCAK256 ADD SLOAD PUSH1 0x40 DUP1 MLOAD PUSH4 0x1D643FF3 PUSH1 0xE2 SHL DUP2 MSTORE SWAP1 MLOAD PUSH1 0x1 PUSH1 0x1 PUSH1 0xA0 SHL SUB SWAP1 SWAP3 AND SWAP3 PUSH4 0x7590FFCC SWAP3 PUSH1 0x4 DUP1 DUP5 ADD SWAP4 DUP3 SWAP1 SUB ADD DUP2 DUP7 GAS STATICCALL ISZERO DUP1 ISZERO PUSH3 0x58A JUMPI RETURNDATASIZE PUSH1 0x0 DUP1 RETURNDATACOPY RETURNDATASIZE PUSH1 0x0 REVERT JUMPDEST POP POP POP POP PUSH1 0x40 MLOAD RETURNDATASIZE PUSH1 0x0 DUP3 RETURNDATACOPY PUSH1 0x1F RETURNDATASIZE SWAP1 DUP2 ADD PUSH1 0x1F NOT AND DUP3 ADD PUSH1 0x40 MSTORE PUSH3 0x3D3 SWAP2 SWAP1 DUP2 ADD SWAP1 PUSH3 0xAEA JUMP JUMPDEST PUSH1 0x0 DUP1 DUP3 DUP2 SLOAD DUP2 LT PUSH3 0x5CB JUMPI PUSH3 0x5CB PUSH3 0x9C2 JUMP JUMPDEST PUSH1 0x0 SWAP2 DUP3 MSTORE PUSH1 0x20 SWAP2 DUP3 SWAP1 KECCAK256 ADD SLOAD PUSH1 0x40 DUP1 MLOAD PUSH3 0x9032FF PUSH1 0xE5 SHL DUP2 MSTORE SWAP1 MLOAD PUSH1 0x1 PUSH1 0x1 PUSH1 0xA0 SHL SUB SWAP1 SWAP3 AND SWAP3 PUSH4 0x12065FE0 SWAP3 PUSH1 0x4 DUP1 DUP5 ADD SWAP4 DUP3 SWAP1 SUB ADD DUP2 DUP7 GAS STATICCALL ISZERO DUP1 ISZERO PUSH3 0x619 JUMPI RETURNDATASIZE PUSH1 0x0 DUP1 RETURNDATACOPY RETURNDATASIZE PUSH1 0x0 REVERT JUMPDEST POP POP POP POP PUSH1 0x40 MLOAD RETURNDATASIZE PUSH1 0x1F NOT PUSH1 0x1F DUP3 ADD AND DUP3 ADD DUP1 PUSH1 0x40 MSTORE POP DUP2 ADD SWAP1 PUSH3 0x3D3 SWAP2 SWAP1 PUSH3 0xB84 JUMP JUMPDEST PUSH1 0x0 DUP1 DUP3 DUP2 SLOAD DUP2 LT PUSH3 0x656 JUMPI PUSH3 0x656 PUSH3 0x9C2 JUMP JUMPDEST PUSH1 0x0 SWAP2 DUP3 MSTORE PUSH1 0x20 SWAP2 DUP3 SWAP1 KECCAK256 ADD SLOAD PUSH1 0x40 DUP1 MLOAD PUSH4 0x32A2C5D PUSH1 0xE4 SHL DUP2 MSTORE SWAP1 MLOAD PUSH1 0x1 PUSH1 0x1 PUSH1 0xA0 SHL SUB SWAP1 SWAP3 AND SWAP3 PUSH4 0x32A2C5D0 SWAP3 PUSH1 0x4 DUP1 DUP5 ADD SWAP4 DUP3 SWAP1 SUB ADD DUP2 DUP7 GAS STATICCALL ISZERO DUP1 ISZERO PUSH3 0x3AD JUMPI RETURNDATASIZE PUSH1 0x0 DUP1 RETURNDATACOPY RETURNDATASIZE PUSH1 0x0 REVERT JUMPDEST PUSH1 0x0 DUP2 DUP2 SLOAD DUP2 LT PUSH3 0x6BB JUMPI PUSH3 0x6BB PUSH3 0x9C2 JUMP JUMPDEST PUSH1 0x0 SWAP2 DUP3 MSTORE PUSH1 0x20 DUP3 KECCAK256 ADD SLOAD PUSH1 0x40 DUP1 MLOAD PUSH4 0x269FECB PUSH1 0xE4 SHL DUP2 MSTORE SWAP1 MLOAD PUSH1 0x1 PUSH1 0x1 PUSH1 0xA0 SHL SUB SWAP1 SWAP3 AND SWAP3 PUSH4 0x269FECB0 SWAP3 PUSH1 0x4 DUP1 DUP5 ADD SWAP4 DUP3 SWAP1 SUB ADD DUP2 DUP4 DUP8 DUP1 EXTCODESIZE ISZERO DUP1 ISZERO PUSH3 0x32B JUMPI PUSH1 0x0 DUP1 REVERT JUMPDEST PUSH2 0x171A DUP1 PUSH3 0xB9F DUP4 CODECOPY ADD SWAP1 JUMP JUMPDEST PUSH1 0x0 PUSH1 0x20 DUP3 DUP5 SUB SLT ISZERO PUSH3 0x725 JUMPI PUSH1 0x0 DUP1 REVERT JUMPDEST POP CALLDATALOAD SWAP2 SWAP1 POP JUMP JUMPDEST PUSH1 0x0 DUP2 MLOAD DUP1 DUP5 MSTORE PUSH1 0x20 DUP1 DUP6 ADD SWAP5 POP DUP1 DUP5 ADD PUSH1 0x0 JUMPDEST DUP4 DUP2 LT ISZERO PUSH3 0x75E JUMPI DUP2 MLOAD DUP8 MSTORE SWAP6 DUP3 ADD SWAP6 SWAP1 DUP3 ADD SWAP1 PUSH1 0x1 ADD PUSH3 0x740 JUMP JUMPDEST POP SWAP5 SWAP6 SWAP5 POP POP POP POP POP JUMP JUMPDEST PUSH1 0x20 DUP2 MSTORE PUSH1 0x0 PUSH3 0x77E PUSH1 0x20 DUP4 ADD DUP5 PUSH3 0x72C JUMP JUMPDEST SWAP4 SWAP3 POP POP POP JUMP JUMPDEST PUSH1 0x1 PUSH1 0x1 PUSH1 0xA0 SHL SUB DUP2 AND DUP2 EQ PUSH3 0x79B JUMPI PUSH1 0x0 DUP1 REVERT JUMPDEST POP JUMP JUMPDEST PUSH1 0x0 PUSH1 0x20 DUP3 DUP5 SUB SLT ISZERO PUSH3 0x7B1 JUMPI PUSH1 0x0 DUP1 REVERT JUMPDEST DUP2 CALLDATALOAD PUSH3 0x77E DUP2 PUSH3 0x785 JUMP JUMPDEST PUSH4 0x4E487B71 PUSH1 0xE0 SHL PUSH1 0x0 MSTORE PUSH1 0x41 PUSH1 0x4 MSTORE PUSH1 0x24 PUSH1 0x0 REVERT JUMPDEST PUSH1 0x40 MLOAD PUSH1 0x1F DUP3 ADD PUSH1 0x1F NOT AND DUP2 ADD PUSH8 0xFFFFFFFFFFFFFFFF DUP2 GT DUP3 DUP3 LT OR ISZERO PUSH3 0x800 JUMPI PUSH3 0x800 PUSH3 0x7BE JUMP JUMPDEST PUSH1 0x40 MSTORE SWAP2 SWAP1 POP JUMP JUMPDEST PUSH1 0x0 PUSH8 0xFFFFFFFFFFFFFFFF DUP3 GT ISZERO PUSH3 0x825 JUMPI PUSH3 0x825 PUSH3 0x7BE JUMP JUMPDEST POP PUSH1 0x5 SHL PUSH1 0x20 ADD SWAP1 JUMP JUMPDEST PUSH1 0x0 DUP3 PUSH1 0x1F DUP4 ADD SLT PUSH3 0x841 JUMPI PUSH1 0x0 DUP1 REVERT JUMPDEST DUP2 CALLDATALOAD PUSH1 0x20 PUSH3 0x85A PUSH3 0x854 DUP4 PUSH3 0x808 JUMP JUMPDEST PUSH3 0x7D4 JUMP JUMPDEST DUP3 DUP2 MSTORE PUSH1 0x5 SWAP3 SWAP1 SWAP3 SHL DUP5 ADD DUP2 ADD SWAP2 DUP2 DUP2 ADD SWAP1 DUP7 DUP5 GT ISZERO PUSH3 0x87A JUMPI PUSH1 0x0 DUP1 REVERT JUMPDEST DUP3 DUP7 ADD JUMPDEST DUP5 DUP2 LT ISZERO PUSH3 0x897 JUMPI DUP1 CALLDATALOAD DUP4 MSTORE SWAP2 DUP4 ADD SWAP2 DUP4 ADD PUSH3 0x87E JUMP JUMPDEST POP SWAP7 SWAP6 POP POP POP POP POP POP JUMP JUMPDEST PUSH1 0x0 DUP1 PUSH1 0x40 DUP4 DUP6 SUB SLT ISZERO PUSH3 0x8B6 JUMPI PUSH1 0x0 DUP1 REVERT JUMPDEST DUP3 CALLDATALOAD PUSH8 0xFFFFFFFFFFFFFFFF DUP1 DUP3 GT ISZERO PUSH3 0x8CF JUMPI PUSH1 0x0 DUP1 REVERT JUMPDEST DUP2 DUP6 ADD SWAP2 POP DUP6 PUSH1 0x1F DUP4 ADD SLT PUSH3 0x8E4 JUMPI PUSH1 0x0 DUP1 REVERT JUMPDEST DUP2 CALLDATALOAD PUSH1 0x20 PUSH3 0x8F7 PUSH3 0x854 DUP4 PUSH3 0x808 JUMP JUMPDEST DUP3 DUP2 MSTORE PUSH1 0x5 SWAP3 SWAP1 SWAP3 SHL DUP5 ADD DUP2 ADD SWAP2 DUP2 DUP2 ADD SWAP1 DUP10 DUP5 GT ISZERO PUSH3 0x917 JUMPI PUSH1 0x0 DUP1 REVERT JUMPDEST SWAP5 DUP3 ADD SWAP5 JUMPDEST DUP4 DUP7 LT ISZERO PUSH3 0x942 JUMPI DUP6 CALLDATALOAD PUSH3 0x932 DUP2 PUSH3 0x785 JUMP JUMPDEST DUP3 MSTORE SWAP5 DUP3 ADD SWAP5 SWAP1 DUP3 ADD SWAP1 PUSH3 0x91C JUMP JUMPDEST SWAP7 POP POP DUP7 ADD CALLDATALOAD SWAP3 POP POP DUP1 DUP3 GT ISZERO PUSH3 0x959 JUMPI PUSH1 0x0 DUP1 REVERT JUMPDEST POP PUSH3 0x968 DUP6 DUP3 DUP7 ADD PUSH3 0x82F JUMP JUMPDEST SWAP2 POP POP SWAP3 POP SWAP3 SWAP1 POP JUMP JUMPDEST PUSH1 0x0 DUP2 MLOAD DUP1 DUP5 MSTORE PUSH1 0x20 DUP1 DUP6 ADD SWAP5 POP DUP1 DUP5 ADD PUSH1 0x0 JUMPDEST DUP4 DUP2 LT ISZERO PUSH3 0x75E JUMPI DUP2 MLOAD PUSH1 0x1 PUSH1 0x1 PUSH1 0xA0 SHL SUB AND DUP8 MSTORE SWAP6 DUP3 ADD SWAP6 SWAP1 DUP3 ADD SWAP1 PUSH1 0x1 ADD PUSH3 0x986 JUMP JUMPDEST PUSH1 0x20 DUP2 MSTORE PUSH1 0x0 PUSH3 0x77E PUSH1 0x20 DUP4 ADD DUP5 PUSH3 0x972 JUMP JUMPDEST PUSH4 0x4E487B71 PUSH1 0xE0 SHL PUSH1 0x0 MSTORE PUSH1 0x32 PUSH1 0x4 MSTORE PUSH1 0x24 PUSH1 0x0 REVERT JUMPDEST PUSH1 0x0 PUSH1 0x20 DUP3 DUP5 SUB SLT ISZERO PUSH3 0x9EB JUMPI PUSH1 0x0 DUP1 REVERT JUMPDEST DUP2 MLOAD PUSH3 0x77E DUP2 PUSH3 0x785 JUMP JUMPDEST PUSH1 0x0 PUSH1 0x20 DUP1 DUP4 DUP6 SUB SLT ISZERO PUSH3 0xA0C JUMPI PUSH1 0x0 DUP1 REVERT JUMPDEST DUP3 MLOAD PUSH8 0xFFFFFFFFFFFFFFFF DUP2 GT ISZERO PUSH3 0xA24 JUMPI PUSH1 0x0 DUP1 REVERT JUMPDEST DUP4 ADD PUSH1 0x1F DUP2 ADD DUP6 SGT PUSH3 0xA36 JUMPI PUSH1 0x0 DUP1 REVERT JUMPDEST DUP1 MLOAD PUSH3 0xA47 PUSH3 0x854 DUP3 PUSH3 0x808 JUMP JUMPDEST DUP2 DUP2 MSTORE PUSH1 0x5 SWAP2 SWAP1 SWAP2 SHL DUP3 ADD DUP4 ADD SWAP1 DUP4 DUP2 ADD SWAP1 DUP8 DUP4 GT ISZERO PUSH3 0xA67 JUMPI PUSH1 0x0 DUP1 REVERT JUMPDEST SWAP3 DUP5 ADD SWAP3 JUMPDEST DUP3 DUP5 LT ISZERO PUSH3 0xA87 JUMPI DUP4 MLOAD DUP3 MSTORE SWAP3 DUP5 ADD SWAP3 SWAP1 DUP5 ADD SWAP1 PUSH3 0xA6C JUMP JUMPDEST SWAP8 SWAP7 POP POP POP POP POP POP POP JUMP JUMPDEST PUSH1 0x40 DUP2 MSTORE PUSH1 0x0 PUSH3 0xAA7 PUSH1 0x40 DUP4 ADD DUP6 PUSH3 0x972 JUMP JUMPDEST DUP3 DUP2 SUB PUSH1 0x20 DUP5 ADD MSTORE PUSH3 0xABB DUP2 DUP6 PUSH3 0x72C JUMP JUMPDEST SWAP6 SWAP5 POP POP POP POP POP JUMP JUMPDEST PUSH1 0x0 DUP3 DUP3 LT ISZERO PUSH3 0xAE5 JUMPI PUSH4 0x4E487B71 PUSH1 0xE0 SHL PUSH1 0x0 MSTORE PUSH1 0x11 PUSH1 0x4 MSTORE PUSH1 0x24 PUSH1 0x0 REVERT JUMPDEST POP SUB SWAP1 JUMP JUMPDEST PUSH1 0x0 PUSH1 0x20 DUP1 DUP4 DUP6 SUB SLT ISZERO PUSH3 0xAFE JUMPI PUSH1 0x0 DUP1 REVERT JUMPDEST DUP3 MLOAD PUSH8 0xFFFFFFFFFFFFFFFF DUP2 GT ISZERO PUSH3 0xB16 JUMPI PUSH1 0x0 DUP1 REVERT JUMPDEST DUP4 ADD PUSH1 0x1F DUP2 ADD DUP6 SGT PUSH3 0xB28 JUMPI PUSH1 0x0 DUP1 REVERT JUMPDEST DUP1 MLOAD PUSH3 0xB39 PUSH3 0x854 DUP3 PUSH3 0x808 JUMP JUMPDEST DUP2 DUP2 MSTORE PUSH1 0x5 SWAP2 SWAP1 SWAP2 SHL DUP3 ADD DUP4 ADD SWAP1 DUP4 DUP2 ADD SWAP1 DUP8 DUP4 GT ISZERO PUSH3 0xB59 JUMPI PUSH1 0x0 DUP1 REVERT JUMPDEST SWAP3 DUP5 ADD SWAP3 JUMPDEST DUP3 DUP5 LT ISZERO PUSH3 0xA87 JUMPI DUP4 MLOAD PUSH3 0xB74 DUP2 PUSH3 0x785 JUMP JUMPDEST DUP3 MSTORE SWAP3 DUP5 ADD SWAP3 SWAP1 DUP5 ADD SWAP1 PUSH3 0xB5E JUMP JUMPDEST PUSH1 0x0 PUSH1 0x20 DUP3 DUP5 SUB SLT ISZERO PUSH3 0xB97 JUMPI PUSH1 0x0 DUP1 REVERT JUMPDEST POP MLOAD SWAP2 SWAP1 POP JUMP INVALID PUSH1 0x80 PUSH1 0x40 MSTORE PUSH1 0x40 MLOAD PUSH3 0x171A CODESIZE SUB DUP1 PUSH3 0x171A DUP4 CODECOPY DUP2 ADD PUSH1 0x40 DUP2 SWAP1 MSTORE PUSH3 0x26 SWAP2 PUSH3 0x52F JUMP JUMPDEST DUP2 DUP2 DUP1 MLOAD DUP3 MLOAD EQ PUSH3 0x9A JUMPI PUSH1 0x40 MLOAD PUSH3 0x461BCD PUSH1 0xE5 SHL DUP2 MSTORE PUSH1 0x20 PUSH1 0x4 DUP3 ADD MSTORE PUSH1 0x32 PUSH1 0x24 DUP3 ADD MSTORE PUSH32 0x5061796D656E7453706C69747465723A2070617965657320616E642073686172 PUSH1 0x44 DUP3 ADD MSTORE PUSH18 0xCAE640D8CADCCEE8D040DAD2E6DAC2E8C6D PUSH1 0x73 SHL PUSH1 0x64 DUP3 ADD MSTORE PUSH1 0x84 ADD JUMPDEST PUSH1 0x40 MLOAD DUP1 SWAP2 SUB SWAP1 REVERT JUMPDEST PUSH1 0x0 DUP3 MLOAD GT PUSH3 0xED JUMPI PUSH1 0x40 MLOAD PUSH3 0x461BCD PUSH1 0xE5 SHL DUP2 MSTORE PUSH1 0x20 PUSH1 0x4 DUP3 ADD MSTORE PUSH1 0x1A PUSH1 0x24 DUP3 ADD MSTORE PUSH32 0x5061796D656E7453706C69747465723A206E6F20706179656573000000000000 PUSH1 0x44 DUP3 ADD MSTORE PUSH1 0x64 ADD PUSH3 0x91 JUMP JUMPDEST PUSH1 0x0 JUMPDEST DUP3 MLOAD DUP2 LT ISZERO PUSH3 0x159 JUMPI PUSH3 0x144 DUP4 DUP3 DUP2 MLOAD DUP2 LT PUSH3 0x113 JUMPI PUSH3 0x113 PUSH3 0x60D JUMP JUMPDEST PUSH1 0x20 MUL PUSH1 0x20 ADD ADD MLOAD DUP4 DUP4 DUP2 MLOAD DUP2 LT PUSH3 0x130 JUMPI PUSH3 0x130 PUSH3 0x60D JUMP JUMPDEST PUSH1 0x20 MUL PUSH1 0x20 ADD ADD MLOAD PUSH3 0x1A2 PUSH1 0x20 SHL PUSH1 0x20 SHR JUMP JUMPDEST DUP1 PUSH3 0x150 DUP2 PUSH3 0x639 JUMP JUMPDEST SWAP2 POP POP PUSH3 0xF0 JUMP JUMPDEST POP POP PUSH1 0x9 DUP1 SLOAD PUSH1 0x1 PUSH1 0x1 PUSH1 0xA0 SHL SUB NOT AND CALLER OR SWAP1 SSTORE POP DUP2 MLOAD PUSH3 0x183 SWAP1 PUSH1 0x7 SWAP1 PUSH1 0x20 DUP6 ADD SWAP1 PUSH3 0x38E JUMP JUMPDEST POP DUP1 MLOAD PUSH3 0x199 SWAP1 PUSH1 0x8 SWAP1 PUSH1 0x20 DUP5 ADD SWAP1 PUSH3 0x3F8 JUMP JUMPDEST POP POP POP PUSH3 0x672 JUMP JUMPDEST PUSH1 0x1 PUSH1 0x1 PUSH1 0xA0 SHL SUB DUP3 AND PUSH3 0x20F JUMPI PUSH1 0x40 MLOAD PUSH3 0x461BCD PUSH1 0xE5 SHL DUP2 MSTORE PUSH1 0x20 PUSH1 0x4 DUP3 ADD MSTORE PUSH1 0x2C PUSH1 0x24 DUP3 ADD MSTORE PUSH32 0x5061796D656E7453706C69747465723A206163636F756E742069732074686520 PUSH1 0x44 DUP3 ADD MSTORE PUSH12 0x7A65726F2061646472657373 PUSH1 0xA0 SHL PUSH1 0x64 DUP3 ADD MSTORE PUSH1 0x84 ADD PUSH3 0x91 JUMP JUMPDEST PUSH1 0x0 DUP2 GT PUSH3 0x261 JUMPI PUSH1 0x40 MLOAD PUSH3 0x461BCD PUSH1 0xE5 SHL DUP2 MSTORE PUSH1 0x20 PUSH1 0x4 DUP3 ADD MSTORE PUSH1 0x1D PUSH1 0x24 DUP3 ADD MSTORE PUSH32 0x5061796D656E7453706C69747465723A20736861726573206172652030000000 PUSH1 0x44 DUP3 ADD MSTORE PUSH1 0x64 ADD PUSH3 0x91 JUMP JUMPDEST PUSH1 0x1 PUSH1 0x1 PUSH1 0xA0 SHL SUB DUP3 AND PUSH1 0x0 SWAP1 DUP2 MSTORE PUSH1 0x2 PUSH1 0x20 MSTORE PUSH1 0x40 SWAP1 KECCAK256 SLOAD ISZERO PUSH3 0x2DD JUMPI PUSH1 0x40 MLOAD PUSH3 0x461BCD PUSH1 0xE5 SHL DUP2 MSTORE PUSH1 0x20 PUSH1 0x4 DUP3 ADD MSTORE PUSH1 0x2B PUSH1 0x24 DUP3 ADD MSTORE PUSH32 0x5061796D656E7453706C69747465723A206163636F756E7420616C7265616479 PUSH1 0x44 DUP3 ADD MSTORE PUSH11 0x2068617320736861726573 PUSH1 0xA8 SHL PUSH1 0x64 DUP3 ADD MSTORE PUSH1 0x84 ADD PUSH3 0x91 JUMP JUMPDEST PUSH1 0x4 DUP1 SLOAD PUSH1 0x1 DUP2 ADD SWAP1 SWAP2 SSTORE PUSH32 0x8A35ACFBC15FF81A39AE7D344FD709F28E8600B4AA8C65C6B64BFE7FE36BD19B ADD DUP1 SLOAD PUSH1 0x1 PUSH1 0x1 PUSH1 0xA0 SHL SUB NOT AND PUSH1 0x1 PUSH1 0x1 PUSH1 0xA0 SHL SUB DUP5 AND SWAP1 DUP2 OR SWAP1 SWAP2 SSTORE PUSH1 0x0 SWAP1 DUP2 MSTORE PUSH1 0x2 PUSH1 0x20 MSTORE PUSH1 0x40 DUP2 KECCAK256 DUP3 SWAP1 SSTORE SLOAD PUSH3 0x345 SWAP1 DUP3 SWAP1 PUSH3 0x657 JUMP JUMPDEST PUSH1 0x0 SSTORE PUSH1 0x40 DUP1 MLOAD PUSH1 0x1 PUSH1 0x1 PUSH1 0xA0 SHL SUB DUP5 AND DUP2 MSTORE PUSH1 0x20 DUP2 ADD DUP4 SWAP1 MSTORE PUSH32 0x40C340F65E17194D14DDDDB073D3C9F888E3CB52B5AAE0C6C7706B4FBC905FAC SWAP2 ADD PUSH1 0x40 MLOAD DUP1 SWAP2 SUB SWAP1 LOG1 POP POP JUMP JUMPDEST DUP3 DUP1 SLOAD DUP3 DUP3 SSTORE SWAP1 PUSH1 0x0 MSTORE PUSH1 0x20 PUSH1 0x0 KECCAK256 SWAP1 DUP2 ADD SWAP3 DUP3 ISZERO PUSH3 0x3E6 JUMPI SWAP2 PUSH1 0x20 MUL DUP3 ADD JUMPDEST DUP3 DUP2 GT ISZERO PUSH3 0x3E6 JUMPI DUP3 MLOAD DUP3 SLOAD PUSH1 0x1 PUSH1 0x1 PUSH1 0xA0 SHL SUB NOT AND PUSH1 0x1 PUSH1 0x1 PUSH1 0xA0 SHL SUB SWAP1 SWAP2 AND OR DUP3 SSTORE PUSH1 0x20 SWAP1 SWAP3 ADD SWAP2 PUSH1 0x1 SWAP1 SWAP2 ADD SWAP1 PUSH3 0x3AF JUMP JUMPDEST POP PUSH3 0x3F4 SWAP3 SWAP2 POP PUSH3 0x436 JUMP JUMPDEST POP SWAP1 JUMP JUMPDEST DUP3 DUP1 SLOAD DUP3 DUP3 SSTORE SWAP1 PUSH1 0x0 MSTORE PUSH1 0x20 PUSH1 0x0 KECCAK256 SWAP1 DUP2 ADD SWAP3 DUP3 ISZERO PUSH3 0x3E6 JUMPI SWAP2 PUSH1 0x20 MUL DUP3 ADD JUMPDEST DUP3 DUP2 GT ISZERO PUSH3 0x3E6 JUMPI DUP3 MLOAD DUP3 SSTORE SWAP2 PUSH1 0x20 ADD SWAP2 SWAP1 PUSH1 0x1 ADD SWAP1 PUSH3 0x419 JUMP JUMPDEST JUMPDEST DUP1 DUP3 GT ISZERO PUSH3 0x3F4 JUMPI PUSH1 0x0 DUP2 SSTORE PUSH1 0x1 ADD PUSH3 0x437 JUMP JUMPDEST PUSH4 0x4E487B71 PUSH1 0xE0 SHL PUSH1 0x0 MSTORE PUSH1 0x41 PUSH1 0x4 MSTORE PUSH1 0x24 PUSH1 0x0 REVERT JUMPDEST PUSH1 0x40 MLOAD PUSH1 0x1F DUP3 ADD PUSH1 0x1F NOT AND DUP2 ADD PUSH1 0x1 PUSH1 0x1 PUSH1 0x40 SHL SUB DUP2 GT DUP3 DUP3 LT OR ISZERO PUSH3 0x48E JUMPI PUSH3 0x48E PUSH3 0x44D JUMP JUMPDEST PUSH1 0x40 MSTORE SWAP2 SWAP1 POP JUMP JUMPDEST PUSH1 0x0 PUSH1 0x1 PUSH1 0x1 PUSH1 0x40 SHL SUB DUP3 GT ISZERO PUSH3 0x4B2 JUMPI PUSH3 0x4B2 PUSH3 0x44D JUMP JUMPDEST POP PUSH1 0x5 SHL PUSH1 0x20 ADD SWAP1 JUMP JUMPDEST PUSH1 0x0 DUP3 PUSH1 0x1F DUP4 ADD SLT PUSH3 0x4CE JUMPI PUSH1 0x0 DUP1 REVERT JUMPDEST DUP2 MLOAD PUSH1 0x20 PUSH3 0x4E7 PUSH3 0x4E1 DUP4 PUSH3 0x496 JUMP JUMPDEST PUSH3 0x463 JUMP JUMPDEST DUP3 DUP2 MSTORE PUSH1 0x5 SWAP3 SWAP1 SWAP3 SHL DUP5 ADD DUP2 ADD SWAP2 DUP2 DUP2 ADD SWAP1 DUP7 DUP5 GT ISZERO PUSH3 0x507 JUMPI PUSH1 0x0 DUP1 REVERT JUMPDEST DUP3 DUP7 ADD JUMPDEST DUP5 DUP2 LT ISZERO PUSH3 0x524 JUMPI DUP1 MLOAD DUP4 MSTORE SWAP2 DUP4 ADD SWAP2 DUP4 ADD PUSH3 0x50B JUMP JUMPDEST POP SWAP7 SWAP6 POP POP POP POP POP POP JUMP JUMPDEST PUSH1 0x0 DUP1 PUSH1 0x40 DUP4 DUP6 SUB SLT ISZERO PUSH3 0x543 JUMPI PUSH1 0x0 DUP1 REVERT JUMPDEST DUP3 MLOAD PUSH1 0x1 PUSH1 0x1 PUSH1 0x40 SHL SUB DUP1 DUP3 GT ISZERO PUSH3 0x55B JUMPI PUSH1 0x0 DUP1 REVERT JUMPDEST DUP2 DUP6 ADD SWAP2 POP DUP6 PUSH1 0x1F DUP4 ADD SLT PUSH3 0x570 JUMPI PUSH1 0x0 DUP1 REVERT JUMPDEST DUP2 MLOAD PUSH1 0x20 PUSH3 0x583 PUSH3 0x4E1 DUP4 PUSH3 0x496 JUMP JUMPDEST DUP3 DUP2 MSTORE PUSH1 0x5 SWAP3 SWAP1 SWAP3 SHL DUP5 ADD DUP2 ADD SWAP2 DUP2 DUP2 ADD SWAP1 DUP10 DUP5 GT ISZERO PUSH3 0x5A3 JUMPI PUSH1 0x0 DUP1 REVERT JUMPDEST SWAP5 DUP3 ADD SWAP5 JUMPDEST DUP4 DUP7 LT ISZERO PUSH3 0x5DA JUMPI DUP6 MLOAD PUSH1 0x1 PUSH1 0x1 PUSH1 0xA0 SHL SUB DUP2 AND DUP2 EQ PUSH3 0x5CA JUMPI PUSH1 0x0 DUP1 DUP2 REVERT JUMPDEST DUP3 MSTORE SWAP5 DUP3 ADD SWAP5 SWAP1 DUP3 ADD SWAP1 PUSH3 0x5A8 JUMP JUMPDEST SWAP2 DUP9 ADD MLOAD SWAP2 SWAP7 POP SWAP1 SWAP4 POP POP POP DUP1 DUP3 GT ISZERO PUSH3 0x5F4 JUMPI PUSH1 0x0 DUP1 REVERT JUMPDEST POP PUSH3 0x603 DUP6 DUP3 DUP7 ADD PUSH3 0x4BC JUMP JUMPDEST SWAP2 POP POP SWAP3 POP SWAP3 SWAP1 POP JUMP JUMPDEST PUSH4 0x4E487B71 PUSH1 0xE0 SHL PUSH1 0x0 MSTORE PUSH1 0x32 PUSH1 0x4 MSTORE PUSH1 0x24 PUSH1 0x0 REVERT JUMPDEST PUSH4 0x4E487B71 PUSH1 0xE0 SHL PUSH1 0x0 MSTORE PUSH1 0x11 PUSH1 0x4 MSTORE PUSH1 0x24 PUSH1 0x0 REVERT JUMPDEST PUSH1 0x0 PUSH1 0x0 NOT DUP3 EQ ISZERO PUSH3 0x650 JUMPI PUSH3 0x650 PUSH3 0x623 JUMP JUMPDEST POP PUSH1 0x1 ADD SWAP1 JUMP JUMPDEST PUSH1 0x0 DUP3 NOT DUP3 GT ISZERO PUSH3 0x66D JUMPI PUSH3 0x66D PUSH3 0x623 JUMP JUMPDEST POP ADD SWAP1 JUMP JUMPDEST PUSH2 0x1098 DUP1 PUSH3 0x682 PUSH1 0x0 CODECOPY PUSH1 0x0 RETURN INVALID PUSH1 0x80 PUSH1 0x40 MSTORE PUSH1 0x4 CALLDATASIZE LT PUSH2 0x10D JUMPI PUSH1 0x0 CALLDATALOAD PUSH1 0xE0 SHR DUP1 PUSH4 0x893D20E8 GT PUSH2 0x95 JUMPI DUP1 PUSH4 0xB6A2B240 GT PUSH2 0x64 JUMPI DUP1 PUSH4 0xB6A2B240 EQ PUSH2 0x321 JUMPI DUP1 PUSH4 0xCE7C2AC2 EQ PUSH2 0x343 JUMPI DUP1 PUSH4 0xD0E30DB0 EQ PUSH2 0x19D JUMPI DUP1 PUSH4 0xD79779B2 EQ PUSH2 0x379 JUMPI DUP1 PUSH4 0xE33B7DE3 EQ PUSH2 0x3AF JUMPI PUSH1 0x0 DUP1 REVERT JUMPDEST DUP1 PUSH4 0x893D20E8 EQ PUSH2 0x28D JUMPI DUP1 PUSH4 0x8B83209B EQ PUSH2 0x2AB JUMPI DUP1 PUSH4 0x8DA5CB5B EQ PUSH2 0x2CB JUMPI DUP1 PUSH4 0x9852595C EQ PUSH2 0x2EB JUMPI PUSH1 0x0 DUP1 REVERT JUMPDEST DUP1 PUSH4 0x32A2C5D0 GT PUSH2 0xDC JUMPI DUP1 PUSH4 0x32A2C5D0 EQ PUSH2 0x1C9 JUMPI DUP1 PUSH4 0x3A98EF39 EQ PUSH2 0x1F0 JUMPI DUP1 PUSH4 0x406072A9 EQ PUSH2 0x205 JUMPI DUP1 PUSH4 0x48B75044 EQ PUSH2 0x24B JUMPI DUP1 PUSH4 0x7590FFCC EQ PUSH2 0x26B JUMPI PUSH1 0x0 DUP1 REVERT JUMPDEST DUP1 PUSH4 0x12065FE0 EQ PUSH2 0x15B JUMPI DUP1 PUSH4 0x19165587 EQ PUSH2 0x17D JUMPI DUP1 PUSH4 0x227E5506 EQ PUSH2 0x19F JUMPI DUP1 PUSH4 0x269FECB0 EQ PUSH2 0x1B4 JUMPI PUSH1 0x0 DUP1 REVERT JUMPDEST CALLDATASIZE PUSH2 0x156 JUMPI PUSH32 0x6EF95F06320E7A25A04A175CA677B7052BDD97131872C2192525A629F51BE770 CALLER PUSH1 0x40 DUP1 MLOAD PUSH1 0x1 PUSH1 0x1 PUSH1 0xA0 SHL SUB SWAP1 SWAP3 AND DUP3 MSTORE CALLVALUE PUSH1 0x20 DUP4 ADD MSTORE ADD PUSH1 0x40 MLOAD DUP1 SWAP2 SUB SWAP1 LOG1 STOP JUMPDEST PUSH1 0x0 DUP1 REVERT JUMPDEST CALLVALUE DUP1 ISZERO PUSH2 0x167 JUMPI PUSH1 0x0 DUP1 REVERT JUMPDEST POP SELFBALANCE JUMPDEST PUSH1 0x40 MLOAD SWAP1 DUP2 MSTORE PUSH1 0x20 ADD JUMPDEST PUSH1 0x40 MLOAD DUP1 SWAP2 SUB SWAP1 RETURN JUMPDEST CALLVALUE DUP1 ISZERO PUSH2 0x189 JUMPI PUSH1 0x0 DUP1 REVERT JUMPDEST POP PUSH2 0x19D PUSH2 0x198 CALLDATASIZE PUSH1 0x4 PUSH2 0xD6C JUMP JUMPDEST PUSH2 0x3C4 JUMP JUMPDEST STOP JUMPDEST CALLVALUE DUP1 ISZERO PUSH2 0x1AB JUMPI PUSH1 0x0 DUP1 REVERT JUMPDEST POP PUSH2 0x19D PUSH2 0x4FB JUMP JUMPDEST CALLVALUE DUP1 ISZERO PUSH2 0x1C0 JUMPI PUSH1 0x0 DUP1 REVERT JUMPDEST POP PUSH2 0x19D PUSH2 0x5B5 JUMP JUMPDEST CALLVALUE DUP1 ISZERO PUSH2 0x1D5 JUMPI PUSH1 0x0 DUP1 REVERT JUMPDEST POP ADDRESS JUMPDEST PUSH1 0x40 MLOAD PUSH1 0x1 PUSH1 0x1 PUSH1 0xA0 SHL SUB SWAP1 SWAP2 AND DUP2 MSTORE PUSH1 0x20 ADD PUSH2 0x174 JUMP JUMPDEST CALLVALUE DUP1 ISZERO PUSH2 0x1FC JUMPI PUSH1 0x0 DUP1 REVERT JUMPDEST POP PUSH1 0x0 SLOAD PUSH2 0x16A JUMP JUMPDEST CALLVALUE DUP1 ISZERO PUSH2 0x211 JUMPI PUSH1 0x0 DUP1 REVERT JUMPDEST POP PUSH2 0x16A PUSH2 0x220 CALLDATASIZE PUSH1 0x4 PUSH2 0xD89 JUMP JUMPDEST PUSH1 0x1 PUSH1 0x1 PUSH1 0xA0 SHL SUB SWAP2 DUP3 AND PUSH1 0x0 SWAP1 DUP2 MSTORE PUSH1 0x6 PUSH1 0x20 SWAP1 DUP2 MSTORE PUSH1 0x40 DUP1 DUP4 KECCAK256 SWAP4 SWAP1 SWAP5 AND DUP3 MSTORE SWAP2 SWAP1 SWAP2 MSTORE KECCAK256 SLOAD SWAP1 JUMP JUMPDEST CALLVALUE DUP1 ISZERO PUSH2 0x257 JUMPI PUSH1 0x0 DUP1 REVERT JUMPDEST POP PUSH2 0x19D PUSH2 0x266 CALLDATASIZE PUSH1 0x4 PUSH2 0xD89 JUMP JUMPDEST PUSH2 0x6B2 JUMP JUMPDEST CALLVALUE DUP1 ISZERO PUSH2 0x277 JUMPI PUSH1 0x0 DUP1 REVERT JUMPDEST POP PUSH2 0x280 PUSH2 0x88B JUMP JUMPDEST PUSH1 0x40 MLOAD PUSH2 0x174 SWAP2 SWAP1 PUSH2 0xDC2 JUMP JUMPDEST CALLVALUE DUP1 ISZERO PUSH2 0x299 JUMPI PUSH1 0x0 DUP1 REVERT JUMPDEST POP PUSH1 0x9 SLOAD PUSH1 0x1 PUSH1 0x1 PUSH1 0xA0 SHL SUB AND PUSH2 0x1D8 JUMP JUMPDEST CALLVALUE DUP1 ISZERO PUSH2 0x2B7 JUMPI PUSH1 0x0 DUP1 REVERT JUMPDEST POP PUSH2 0x1D8 PUSH2 0x2C6 CALLDATASIZE PUSH1 0x4 PUSH2 0xE0F JUMP JUMPDEST PUSH2 0x8ED JUMP JUMPDEST CALLVALUE DUP1 ISZERO PUSH2 0x2D7 JUMPI PUSH1 0x0 DUP1 REVERT JUMPDEST POP PUSH1 0x9 SLOAD PUSH2 0x1D8 SWAP1 PUSH1 0x1 PUSH1 0x1 PUSH1 0xA0 SHL SUB AND DUP2 JUMP JUMPDEST CALLVALUE DUP1 ISZERO PUSH2 0x2F7 JUMPI PUSH1 0x0 DUP1 REVERT JUMPDEST POP PUSH2 0x16A PUSH2 0x306 CALLDATASIZE PUSH1 0x4 PUSH2 0xD6C JUMP JUMPDEST PUSH1 0x1 PUSH1 0x1 PUSH1 0xA0 SHL SUB AND PUSH1 0x0 SWAP1 DUP2 MSTORE PUSH1 0x3 PUSH1 0x20 MSTORE PUSH1 0x40 SWAP1 KECCAK256 SLOAD SWAP1 JUMP JUMPDEST CALLVALUE DUP1 ISZERO PUSH2 0x32D JUMPI PUSH1 0x0 DUP1 REVERT JUMPDEST POP PUSH2 0x336 PUSH2 0x91D JUMP JUMPDEST PUSH1 0x40 MLOAD PUSH2 0x174 SWAP2 SWAP1 PUSH2 0xE28 JUMP JUMPDEST CALLVALUE DUP1 ISZERO PUSH2 0x34F JUMPI PUSH1 0x0 DUP1 REVERT JUMPDEST POP PUSH2 0x16A PUSH2 0x35E CALLDATASIZE PUSH1 0x4 PUSH2 0xD6C JUMP JUMPDEST PUSH1 0x1 PUSH1 0x1 PUSH1 0xA0 SHL SUB AND PUSH1 0x0 SWAP1 DUP2 MSTORE PUSH1 0x2 PUSH1 0x20 MSTORE PUSH1 0x40 SWAP1 KECCAK256 SLOAD SWAP1 JUMP JUMPDEST CALLVALUE DUP1 ISZERO PUSH2 0x385 JUMPI PUSH1 0x0 DUP1 REVERT JUMPDEST POP PUSH2 0x16A PUSH2 0x394 CALLDATASIZE PUSH1 0x4 PUSH2 0xD6C JUMP JUMPDEST PUSH1 0x1 PUSH1 0x1 PUSH1 0xA0 SHL SUB AND PUSH1 0x0 SWAP1 DUP2 MSTORE PUSH1 0x5 PUSH1 0x20 MSTORE PUSH1 0x40 SWAP1 KECCAK256 SLOAD SWAP1 JUMP JUMPDEST CALLVALUE DUP1 ISZERO PUSH2 0x3BB JUMPI PUSH1 0x0 DUP1 REVERT JUMPDEST POP PUSH1 0x1 SLOAD PUSH2 0x16A JUMP JUMPDEST PUSH1 0x1 PUSH1 0x1 PUSH1 0xA0 SHL SUB DUP2 AND PUSH1 0x0 SWAP1 DUP2 MSTORE PUSH1 0x2 PUSH1 0x20 MSTORE PUSH1 0x40 SWAP1 KECCAK256 SLOAD PUSH2 0x402 JUMPI PUSH1 0x40 MLOAD PUSH3 0x461BCD PUSH1 0xE5 SHL DUP2 MSTORE PUSH1 0x4 ADD PUSH2 0x3F9 SWAP1 PUSH2 0xE60 JUMP JUMPDEST PUSH1 0x40 MLOAD DUP1 SWAP2 SUB SWAP1 REVERT JUMPDEST PUSH1 0x0 PUSH2 0x40D PUSH1 0x1 SLOAD SWAP1 JUMP JUMPDEST PUSH2 0x417 SWAP1 SELFBALANCE PUSH2 0xEBC JUMP JUMPDEST SWAP1 POP PUSH1 0x0 PUSH2 0x444 DUP4 DUP4 PUSH2 0x43F DUP7 PUSH1 0x1 PUSH1 0x1 PUSH1 0xA0 SHL SUB AND PUSH1 0x0 SWAP1 DUP2 MSTORE PUSH1 0x3 PUSH1 0x20 MSTORE PUSH1 0x40 SWAP1 KECCAK256 SLOAD SWAP1 JUMP JUMPDEST PUSH2 0x974 JUMP JUMPDEST SWAP1 POP DUP1 PUSH2 0x463 JUMPI PUSH1 0x40 MLOAD PUSH3 0x461BCD PUSH1 0xE5 SHL DUP2 MSTORE PUSH1 0x4 ADD PUSH2 0x3F9 SWAP1 PUSH2 0xED4 JUMP JUMPDEST PUSH1 0x1 PUSH1 0x1 PUSH1 0xA0 SHL SUB DUP4 AND PUSH1 0x0 SWAP1 DUP2 MSTORE PUSH1 0x3 PUSH1 0x20 MSTORE PUSH1 0x40 DUP2 KECCAK256 DUP1 SLOAD DUP4 SWAP3 SWAP1 PUSH2 0x48B SWAP1 DUP5 SWAP1 PUSH2 0xEBC JUMP JUMPDEST SWAP3 POP POP DUP2 SWAP1 SSTORE POP DUP1 PUSH1 0x1 PUSH1 0x0 DUP3 DUP3 SLOAD PUSH2 0x4A4 SWAP2 SWAP1 PUSH2 0xEBC JUMP JUMPDEST SWAP1 SWAP2 SSTORE POP PUSH2 0x4B4 SWAP1 POP DUP4 DUP3 PUSH2 0x9B9 JUMP JUMPDEST PUSH1 0x40 DUP1 MLOAD PUSH1 0x1 PUSH1 0x1 PUSH1 0xA0 SHL SUB DUP6 AND DUP2 MSTORE PUSH1 0x20 DUP2 ADD DUP4 SWAP1 MSTORE PUSH32 0xDF20FD1E76BC69D672E4814FAFB2C449BBA3A5369D8359ADF9E05E6FDE87B056 SWAP2 ADD PUSH1 0x40 MLOAD DUP1 SWAP2 SUB SWAP1 LOG1 POP POP POP JUMP JUMPDEST PUSH1 0x9 SLOAD PUSH1 0x1 PUSH1 0x1 PUSH1 0xA0 SHL SUB AND CALLER EQ PUSH2 0x512 JUMPI PUSH1 0x0 DUP1 REVERT JUMPDEST PUSH1 0x0 JUMPDEST PUSH1 0x7 SLOAD DUP2 LT ISZERO PUSH2 0x5B2 JUMPI ADDRESS PUSH1 0x1 PUSH1 0x1 PUSH1 0xA0 SHL SUB AND PUSH4 0x19165587 PUSH1 0x7 DUP4 DUP2 SLOAD DUP2 LT PUSH2 0x541 JUMPI PUSH2 0x541 PUSH2 0xF1F JUMP JUMPDEST PUSH1 0x0 SWAP2 DUP3 MSTORE PUSH1 0x20 SWAP1 SWAP2 KECCAK256 ADD SLOAD PUSH1 0x40 MLOAD PUSH1 0xE0 DUP4 SWAP1 SHL PUSH1 0x1 PUSH1 0x1 PUSH1 0xE0 SHL SUB NOT AND DUP2 MSTORE PUSH1 0x1 PUSH1 0x1 PUSH1 0xA0 SHL SUB SWAP1 SWAP2 AND PUSH1 0x4 DUP3 ADD MSTORE PUSH1 0x24 ADD PUSH1 0x0 PUSH1 0x40 MLOAD DUP1 DUP4 SUB DUP2 PUSH1 0x0 DUP8 DUP1 EXTCODESIZE ISZERO DUP1 ISZERO PUSH2 0x58E JUMPI PUSH1 0x0 DUP1 REVERT JUMPDEST POP GAS CALL SWAP3 POP POP POP DUP1 ISZERO PUSH2 0x59F JUMPI POP PUSH1 0x1 JUMPDEST POP DUP1 PUSH2 0x5AA DUP2 PUSH2 0xF35 JUMP JUMPDEST SWAP2 POP POP PUSH2 0x515 JUMP JUMPDEST POP JUMP JUMPDEST PUSH2 0x5BD PUSH2 0xAD7 JUMP JUMPDEST ISZERO ISZERO PUSH1 0x1 EQ PUSH2 0x5CB JUMPI PUSH1 0x0 DUP1 REVERT JUMPDEST PUSH1 0x0 DUP1 JUMPDEST PUSH1 0x7 SLOAD DUP2 LT ISZERO PUSH2 0x627 JUMPI CALLER PUSH1 0x1 PUSH1 0x1 PUSH1 0xA0 SHL SUB AND PUSH1 0x7 DUP3 DUP2 SLOAD DUP2 LT PUSH2 0x5F6 JUMPI PUSH2 0x5F6 PUSH2 0xF1F JUMP JUMPDEST PUSH1 0x0 SWAP2 DUP3 MSTORE PUSH1 0x20 SWAP1 SWAP2 KECCAK256 ADD SLOAD PUSH1 0x1 PUSH1 0x1 PUSH1 0xA0 SHL SUB AND EQ ISZERO PUSH2 0x615 JUMPI DUP1 SWAP2 POP JUMPDEST DUP1 PUSH2 0x61F DUP2 PUSH2 0xF35 JUMP JUMPDEST SWAP2 POP POP PUSH2 0x5CF JUMP JUMPDEST POP ADDRESS PUSH1 0x1 PUSH1 0x1 PUSH1 0xA0 SHL SUB AND PUSH4 0x19165587 PUSH1 0x7 DUP4 DUP2 SLOAD DUP2 LT PUSH2 0x64A JUMPI PUSH2 0x64A PUSH2 0xF1F JUMP JUMPDEST PUSH1 0x0 SWAP2 DUP3 MSTORE PUSH1 0x20 SWAP1 SWAP2 KECCAK256 ADD SLOAD PUSH1 0x40 MLOAD PUSH1 0xE0 DUP4 SWAP1 SHL PUSH1 0x1 PUSH1 0x1 PUSH1 0xE0 SHL SUB NOT AND DUP2 MSTORE PUSH1 0x1 PUSH1 0x1 PUSH1 0xA0 SHL SUB SWAP1 SWAP2 AND PUSH1 0x4 DUP3 ADD MSTORE PUSH1 0x24 ADD PUSH1 0x0 PUSH1 0x40 MLOAD DUP1 DUP4 SUB DUP2 PUSH1 0x0 DUP8 DUP1 EXTCODESIZE ISZERO DUP1 ISZERO PUSH2 0x697 JUMPI PUSH1 0x0 DUP1 REVERT JUMPDEST POP GAS CALL ISZERO DUP1 ISZERO PUSH2 0x6AB JUMPI RETURNDATASIZE PUSH1 0x0 DUP1 RETURNDATACOPY RETURNDATASIZE PUSH1 0x0 REVERT JUMPDEST POP POP POP POP POP JUMP JUMPDEST PUSH1 0x1 PUSH1 0x1 PUSH1 0xA0 SHL SUB DUP2 AND PUSH1 0x0 SWAP1 DUP2 MSTORE PUSH1 0x2 PUSH1 0x20 MSTORE PUSH1 0x40 SWAP1 KECCAK256 SLOAD PUSH2 0x6E7 JUMPI PUSH1 0x40 MLOAD PUSH3 0x461BCD PUSH1 0xE5 SHL DUP2 MSTORE PUSH1 0x4 ADD PUSH2 0x3F9 SWAP1 PUSH2 0xE60 JUMP JUMPDEST PUSH1 0x1 PUSH1 0x1 PUSH1 0xA0 SHL SUB DUP3 AND PUSH1 0x0 SWAP1 DUP2 MSTORE PUSH1 0x5 PUSH1 0x20 MSTORE PUSH1 0x40 DUP2 KECCAK256 SLOAD PUSH1 0x40 MLOAD PUSH4 0x70A08231 PUSH1 0xE0 SHL DUP2 MSTORE ADDRESS PUSH1 0x4 DUP3 ADD MSTORE PUSH1 0x1 PUSH1 0x1 PUSH1 0xA0 SHL SUB DUP6 AND SWAP1 PUSH4 0x70A08231 SWAP1 PUSH1 0x24 ADD PUSH1 0x20 PUSH1 0x40 MLOAD DUP1 DUP4 SUB DUP2 DUP7 GAS STATICCALL ISZERO DUP1 ISZERO PUSH2 0x744 JUMPI RETURNDATASIZE PUSH1 0x0 DUP1 RETURNDATACOPY RETURNDATASIZE PUSH1 0x0 REVERT JUMPDEST POP POP POP POP PUSH1 0x40 MLOAD RETURNDATASIZE PUSH1 0x1F NOT PUSH1 0x1F DUP3 ADD AND DUP3 ADD DUP1 PUSH1 0x40 MSTORE POP DUP2 ADD SWAP1 PUSH2 0x768 SWAP2 SWAP1 PUSH2 0xF50 JUMP JUMPDEST PUSH2 0x772 SWAP2 SWAP1 PUSH2 0xEBC JUMP JUMPDEST SWAP1 POP PUSH1 0x0 PUSH2 0x7AB DUP4 DUP4 PUSH2 0x43F DUP8 DUP8 PUSH1 0x1 PUSH1 0x1 PUSH1 0xA0 SHL SUB SWAP2 DUP3 AND PUSH1 0x0 SWAP1 DUP2 MSTORE PUSH1 0x6 PUSH1 0x20 SWAP1 DUP2 MSTORE PUSH1 0x40 DUP1 DUP4 KECCAK256 SWAP4 SWAP1 SWAP5 AND DUP3 MSTORE SWAP2 SWAP1 SWAP2 MSTORE KECCAK256 SLOAD SWAP1 JUMP JUMPDEST SWAP1 POP DUP1 PUSH2 0x7CA JUMPI PUSH1 0x40 MLOAD PUSH3 0x461BCD PUSH1 0xE5 SHL DUP2 MSTORE PUSH1 0x4 ADD PUSH2 0x3F9 SWAP1 PUSH2 0xED4 JUMP JUMPDEST PUSH1 0x1 PUSH1 0x1 PUSH1 0xA0 SHL SUB DUP1 DUP6 AND PUSH1 0x0 SWAP1 DUP2 MSTORE PUSH1 0x6 PUSH1 0x20 SWAP1 DUP2 MSTORE PUSH1 0x40 DUP1 DUP4 KECCAK256 SWAP4 DUP8 AND DUP4 MSTORE SWAP3 SWAP1 MSTORE SWAP1 DUP2 KECCAK256 DUP1 SLOAD DUP4 SWAP3 SWAP1 PUSH2 0x801 SWAP1 DUP5 SWAP1 PUSH2 0xEBC JUMP JUMPDEST SWAP1 SWAP2 SSTORE POP POP PUSH1 0x1 PUSH1 0x1 PUSH1 0xA0 SHL SUB DUP5 AND PUSH1 0x0 SWAP1 DUP2 MSTORE PUSH1 0x5 PUSH1 0x20 MSTORE PUSH1 0x40 DUP2 KECCAK256 DUP1 SLOAD DUP4 SWAP3 SWAP1 PUSH2 0x82E SWAP1 DUP5 SWAP1 PUSH2 0xEBC JUMP JUMPDEST SWAP1 SWAP2 SSTORE POP PUSH2 0x83F SWAP1 POP DUP5 DUP5 DUP4 PUSH2 0xB3F JUMP JUMPDEST PUSH1 0x40 DUP1 MLOAD PUSH1 0x1 PUSH1 0x1 PUSH1 0xA0 SHL SUB DUP6 DUP2 AND DUP3 MSTORE PUSH1 0x20 DUP3 ADD DUP5 SWAP1 MSTORE DUP7 AND SWAP2 PUSH32 0x3BE5B7A71E84ED12875D241991C70855AC5817D847039E17A9D895C1CEB0F18A SWAP2 ADD PUSH1 0x40 MLOAD DUP1 SWAP2 SUB SWAP1 LOG2 POP POP POP POP JUMP JUMPDEST PUSH1 0x60 PUSH1 0x7 DUP1 SLOAD DUP1 PUSH1 0x20 MUL PUSH1 0x20 ADD PUSH1 0x40 MLOAD SWAP1 DUP2 ADD PUSH1 0x40 MSTORE DUP1 SWAP3 SWAP2 SWAP1 DUP2 DUP2 MSTORE PUSH1 0x20 ADD DUP3 DUP1 SLOAD DUP1 ISZERO PUSH2 0x8E3 JUMPI PUSH1 0x20 MUL DUP3 ADD SWAP2 SWAP1 PUSH1 0x0 MSTORE PUSH1 0x20 PUSH1 0x0 KECCAK256 SWAP1 JUMPDEST DUP2 SLOAD PUSH1 0x1 PUSH1 0x1 PUSH1 0xA0 SHL SUB AND DUP2 MSTORE PUSH1 0x1 SWAP1 SWAP2 ADD SWAP1 PUSH1 0x20 ADD DUP1 DUP4 GT PUSH2 0x8C5 JUMPI JUMPDEST POP POP POP POP POP SWAP1 POP SWAP1 JUMP JUMPDEST PUSH1 0x0 PUSH1 0x4 DUP3 DUP2 SLOAD DUP2 LT PUSH2 0x902 JUMPI PUSH2 0x902 PUSH2 0xF1F JUMP JUMPDEST PUSH1 0x0 SWAP2 DUP3 MSTORE PUSH1 0x20 SWAP1 SWAP2 KECCAK256 ADD SLOAD PUSH1 0x1 PUSH1 0x1 PUSH1 0xA0 SHL SUB AND SWAP3 SWAP2 POP POP JUMP JUMPDEST PUSH1 0x60 PUSH1 0x8 DUP1 SLOAD DUP1 PUSH1 0x20 MUL PUSH1 0x20 ADD PUSH1 0x40 MLOAD SWAP1 DUP2 ADD PUSH1 0x40 MSTORE DUP1 SWAP3 SWAP2 SWAP1 DUP2 DUP2 MSTORE PUSH1 0x20 ADD DUP3 DUP1 SLOAD DUP1 ISZERO PUSH2 0x8E3 JUMPI PUSH1 0x20 MUL DUP3 ADD SWAP2 SWAP1 PUSH1 0x0 MSTORE PUSH1 0x20 PUSH1 0x0 KECCAK256 SWAP1 JUMPDEST DUP2 SLOAD DUP2 MSTORE PUSH1 0x20 ADD SWAP1 PUSH1 0x1 ADD SWAP1 DUP1 DUP4 GT PUSH2 0x957 JUMPI POP POP POP POP POP SWAP1 POP SWAP1 JUMP JUMPDEST PUSH1 0x0 DUP1 SLOAD PUSH1 0x1 PUSH1 0x1 PUSH1 0xA0 SHL SUB DUP6 AND DUP3 MSTORE PUSH1 0x2 PUSH1 0x20 MSTORE PUSH1 0x40 DUP3 KECCAK256 SLOAD DUP4 SWAP2 SWAP1 PUSH2 0x99B SWAP1 DUP7 PUSH2 0xF69 JUMP JUMPDEST PUSH2 0x9A5 SWAP2 SWAP1 PUSH2 0xF88 JUMP JUMPDEST PUSH2 0x9AF SWAP2 SWAP1 PUSH2 0xFAA JUMP JUMPDEST SWAP1 POP JUMPDEST SWAP4 SWAP3 POP POP POP JUMP JUMPDEST DUP1 SELFBALANCE LT ISZERO PUSH2 0xA09 JUMPI PUSH1 0x40 MLOAD PUSH3 0x461BCD PUSH1 0xE5 SHL DUP2 MSTORE PUSH1 0x20 PUSH1 0x4 DUP3 ADD MSTORE PUSH1 0x1D PUSH1 0x24 DUP3 ADD MSTORE PUSH32 0x416464726573733A20696E73756666696369656E742062616C616E6365000000 PUSH1 0x44 DUP3 ADD MSTORE PUSH1 0x64 ADD PUSH2 0x3F9 JUMP JUMPDEST PUSH1 0x0 DUP3 PUSH1 0x1 PUSH1 0x1 PUSH1 0xA0 SHL SUB AND DUP3 PUSH1 0x40 MLOAD PUSH1 0x0 PUSH1 0x40 MLOAD DUP1 DUP4 SUB DUP2 DUP6 DUP8 GAS CALL SWAP3 POP POP POP RETURNDATASIZE DUP1 PUSH1 0x0 DUP2 EQ PUSH2 0xA56 JUMPI PUSH1 0x40 MLOAD SWAP2 POP PUSH1 0x1F NOT PUSH1 0x3F RETURNDATASIZE ADD AND DUP3 ADD PUSH1 0x40 MSTORE RETURNDATASIZE DUP3 MSTORE RETURNDATASIZE PUSH1 0x0 PUSH1 0x20 DUP5 ADD RETURNDATACOPY PUSH2 0xA5B JUMP JUMPDEST PUSH1 0x60 SWAP2 POP JUMPDEST POP POP SWAP1 POP DUP1 PUSH2 0xAD2 JUMPI PUSH1 0x40 MLOAD PUSH3 0x461BCD PUSH1 0xE5 SHL DUP2 MSTORE PUSH1 0x20 PUSH1 0x4 DUP3 ADD MSTORE PUSH1 0x3A PUSH1 0x24 DUP3 ADD MSTORE PUSH32 0x416464726573733A20756E61626C6520746F2073656E642076616C75652C2072 PUSH1 0x44 DUP3 ADD MSTORE PUSH32 0x6563697069656E74206D61792068617665207265766572746564000000000000 PUSH1 0x64 DUP3 ADD MSTORE PUSH1 0x84 ADD PUSH2 0x3F9 JUMP JUMPDEST POP POP POP JUMP JUMPDEST PUSH1 0x0 DUP1 JUMPDEST PUSH1 0x7 SLOAD DUP2 LT ISZERO PUSH2 0xB37 JUMPI CALLER PUSH1 0x1 PUSH1 0x1 PUSH1 0xA0 SHL SUB AND PUSH1 0x7 DUP3 DUP2 SLOAD DUP2 LT PUSH2 0xB02 JUMPI PUSH2 0xB02 PUSH2 0xF1F JUMP JUMPDEST PUSH1 0x0 SWAP2 DUP3 MSTORE PUSH1 0x20 SWAP1 SWAP2 KECCAK256 ADD SLOAD PUSH1 0x1 PUSH1 0x1 PUSH1 0xA0 SHL SUB AND EQ ISZERO PUSH2 0xB25 JUMPI PUSH1 0x1 SWAP2 POP POP SWAP1 JUMP JUMPDEST DUP1 PUSH2 0xB2F DUP2 PUSH2 0xF35 JUMP JUMPDEST SWAP2 POP POP PUSH2 0xADB JUMP JUMPDEST POP PUSH1 0x0 SWAP1 POP SWAP1 JUMP JUMPDEST PUSH1 0x40 DUP1 MLOAD PUSH1 0x1 PUSH1 0x1 PUSH1 0xA0 SHL SUB DUP5 DUP2 AND PUSH1 0x24 DUP4 ADD MSTORE PUSH1 0x44 DUP1 DUP4 ADD DUP6 SWAP1 MSTORE DUP4 MLOAD DUP1 DUP5 SUB SWAP1 SWAP2 ADD DUP2 MSTORE PUSH1 0x64 SWAP1 SWAP3 ADD DUP4 MSTORE PUSH1 0x20 DUP1 DUP4 ADD DUP1 MLOAD PUSH1 0x1 PUSH1 0x1 PUSH1 0xE0 SHL SUB AND PUSH4 0xA9059CBB PUSH1 0xE0 SHL OR SWAP1 MSTORE DUP4 MLOAD DUP1 DUP6 ADD SWAP1 SWAP5 MSTORE DUP1 DUP5 MSTORE PUSH32 0x5361666545524332303A206C6F772D6C6576656C2063616C6C206661696C6564 SWAP1 DUP5 ADD MSTORE PUSH2 0xAD2 SWAP3 DUP7 SWAP3 SWAP2 PUSH1 0x0 SWAP2 PUSH2 0xBCF SWAP2 DUP6 AND SWAP1 DUP5 SWAP1 PUSH2 0xC4C JUMP JUMPDEST DUP1 MLOAD SWAP1 SWAP2 POP ISZERO PUSH2 0xAD2 JUMPI DUP1 DUP1 PUSH1 0x20 ADD SWAP1 MLOAD DUP2 ADD SWAP1 PUSH2 0xBED SWAP2 SWAP1 PUSH2 0xFC1 JUMP JUMPDEST PUSH2 0xAD2 JUMPI PUSH1 0x40 MLOAD PUSH3 0x461BCD PUSH1 0xE5 SHL DUP2 MSTORE PUSH1 0x20 PUSH1 0x4 DUP3 ADD MSTORE PUSH1 0x2A PUSH1 0x24 DUP3 ADD MSTORE PUSH32 0x5361666545524332303A204552433230206F7065726174696F6E20646964206E PUSH1 0x44 DUP3 ADD MSTORE PUSH10 0x1BDD081CDD58D8D95959 PUSH1 0xB2 SHL PUSH1 0x64 DUP3 ADD MSTORE PUSH1 0x84 ADD PUSH2 0x3F9 JUMP JUMPDEST PUSH1 0x60 PUSH2 0x9AF DUP5 DUP5 PUSH1 0x0 DUP6 DUP6 DUP5 EXTCODESIZE PUSH2 0xCA5 JUMPI PUSH1 0x40 MLOAD PUSH3 0x461BCD PUSH1 0xE5 SHL DUP2 MSTORE PUSH1 0x20 PUSH1 0x4 DUP3 ADD MSTORE PUSH1 0x1D PUSH1 0x24 DUP3 ADD MSTORE PUSH32 0x416464726573733A2063616C6C20746F206E6F6E2D636F6E7472616374000000 PUSH1 0x44 DUP3 ADD MSTORE PUSH1 0x64 ADD PUSH2 0x3F9 JUMP JUMPDEST PUSH1 0x0 DUP1 DUP7 PUSH1 0x1 PUSH1 0x1 PUSH1 0xA0 SHL SUB AND DUP6 DUP8 PUSH1 0x40 MLOAD PUSH2 0xCC1 SWAP2 SWAP1 PUSH2 0x1013 JUMP JUMPDEST PUSH1 0x0 PUSH1 0x40 MLOAD DUP1 DUP4 SUB DUP2 DUP6 DUP8 GAS CALL SWAP3 POP POP POP RETURNDATASIZE DUP1 PUSH1 0x0 DUP2 EQ PUSH2 0xCFE JUMPI PUSH1 0x40 MLOAD SWAP2 POP PUSH1 0x1F NOT PUSH1 0x3F RETURNDATASIZE ADD AND DUP3 ADD PUSH1 0x40 MSTORE RETURNDATASIZE DUP3 MSTORE RETURNDATASIZE PUSH1 0x0 PUSH1 0x20 DUP5 ADD RETURNDATACOPY PUSH2 0xD03 JUMP JUMPDEST PUSH1 0x60 SWAP2 POP JUMPDEST POP SWAP2 POP SWAP2 POP PUSH2 0xD13 DUP3 DUP3 DUP7 PUSH2 0xD1E JUMP JUMPDEST SWAP8 SWAP7 POP POP POP POP POP POP POP JUMP JUMPDEST PUSH1 0x60 DUP4 ISZERO PUSH2 0xD2D JUMPI POP DUP2 PUSH2 0x9B2 JUMP JUMPDEST DUP3 MLOAD ISZERO PUSH2 0xD3D JUMPI DUP3 MLOAD DUP1 DUP5 PUSH1 0x20 ADD REVERT JUMPDEST DUP2 PUSH1 0x40 MLOAD PUSH3 0x461BCD PUSH1 0xE5 SHL DUP2 MSTORE PUSH1 0x4 ADD PUSH2 0x3F9 SWAP2 SWAP1 PUSH2 0x102F JUMP JUMPDEST PUSH1 0x1 PUSH1 0x1 PUSH1 0xA0 SHL SUB DUP2 AND DUP2 EQ PUSH2 0x5B2 JUMPI PUSH1 0x0 DUP1 REVERT JUMPDEST PUSH1 0x0 PUSH1 0x20 DUP3 DUP5 SUB SLT ISZERO PUSH2 0xD7E JUMPI PUSH1 0x0 DUP1 REVERT JUMPDEST DUP2 CALLDATALOAD PUSH2 0x9B2 DUP2 PUSH2 0xD57 JUMP JUMPDEST PUSH1 0x0 DUP1 PUSH1 0x40 DUP4 DUP6 SUB SLT ISZERO PUSH2 0xD9C JUMPI PUSH1 0x0 DUP1 REVERT JUMPDEST DUP3 CALLDATALOAD PUSH2 0xDA7 DUP2 PUSH2 0xD57 JUMP JUMPDEST SWAP2 POP PUSH1 0x20 DUP4 ADD CALLDATALOAD PUSH2 0xDB7 DUP2 PUSH2 0xD57 JUMP JUMPDEST DUP1 SWAP2 POP POP SWAP3 POP SWAP3 SWAP1 POP JUMP JUMPDEST PUSH1 0x20 DUP1 DUP3 MSTORE DUP3 MLOAD DUP3 DUP3 ADD DUP2 SWAP1 MSTORE PUSH1 0x0 SWAP2 SWAP1 DUP5 DUP3 ADD SWAP1 PUSH1 0x40 DUP6 ADD SWAP1 DUP5 JUMPDEST DUP2 DUP2 LT ISZERO PUSH2 0xE03 JUMPI DUP4 MLOAD PUSH1 0x1 PUSH1 0x1 PUSH1 0xA0 SHL SUB AND DUP4 MSTORE SWAP3 DUP5 ADD SWAP3 SWAP2 DUP5 ADD SWAP2 PUSH1 0x1 ADD PUSH2 0xDDE JUMP JUMPDEST POP SWAP1 SWAP7 SWAP6 POP POP POP POP POP POP JUMP JUMPDEST PUSH1 0x0 PUSH1 0x20 DUP3 DUP5 SUB SLT ISZERO PUSH2 0xE21 JUMPI PUSH1 0x0 DUP1 REVERT JUMPDEST POP CALLDATALOAD SWAP2 SWAP1 POP JUMP JUMPDEST PUSH1 0x20 DUP1 DUP3 MSTORE DUP3 MLOAD DUP3 DUP3 ADD DUP2 SWAP1 MSTORE PUSH1 0x0 SWAP2 SWAP1 DUP5 DUP3 ADD SWAP1 PUSH1 0x40 DUP6 ADD SWAP1 DUP5 JUMPDEST DUP2 DUP2 LT ISZERO PUSH2 0xE03 JUMPI DUP4 MLOAD DUP4 MSTORE SWAP3 DUP5 ADD SWAP3 SWAP2 DUP5 ADD SWAP2 PUSH1 0x1 ADD PUSH2 0xE44 JUMP JUMPDEST PUSH1 0x20 DUP1 DUP3 MSTORE PUSH1 0x26 SWAP1 DUP3 ADD MSTORE PUSH32 0x5061796D656E7453706C69747465723A206163636F756E7420686173206E6F20 PUSH1 0x40 DUP3 ADD MSTORE PUSH6 0x736861726573 PUSH1 0xD0 SHL PUSH1 0x60 DUP3 ADD MSTORE PUSH1 0x80 ADD SWAP1 JUMP JUMPDEST PUSH4 0x4E487B71 PUSH1 0xE0 SHL PUSH1 0x0 MSTORE PUSH1 0x11 PUSH1 0x4 MSTORE PUSH1 0x24 PUSH1 0x0 REVERT JUMPDEST PUSH1 0x0 DUP3 NOT DUP3 GT ISZERO PUSH2 0xECF JUMPI PUSH2 0xECF PUSH2 0xEA6 JUMP JUMPDEST POP ADD SWAP1 JUMP JUMPDEST PUSH1 0x20 DUP1 DUP3 MSTORE PUSH1 0x2B SWAP1 DUP3 ADD MSTORE PUSH32 0x5061796D656E7453706C69747465723A206163636F756E74206973206E6F7420 PUSH1 0x40 DUP3 ADD MSTORE PUSH11 0x191D59481C185E5B595B9D PUSH1 0xAA SHL PUSH1 0x60 DUP3 ADD MSTORE PUSH1 0x80 ADD SWAP1 JUMP JUMPDEST PUSH4 0x4E487B71 PUSH1 0xE0 SHL PUSH1 0x0 MSTORE PUSH1 0x32 PUSH1 0x4 MSTORE PUSH1 0x24 PUSH1 0x0 REVERT JUMPDEST PUSH1 0x0 PUSH1 0x0 NOT DUP3 EQ ISZERO PUSH2 0xF49 JUMPI PUSH2 0xF49 PUSH2 0xEA6 JUMP JUMPDEST POP PUSH1 0x1 ADD SWAP1 JUMP JUMPDEST PUSH1 0x0 PUSH1 0x20 DUP3 DUP5 SUB SLT ISZERO PUSH2 0xF62 JUMPI PUSH1 0x0 DUP1 REVERT JUMPDEST POP MLOAD SWAP2 SWAP1 POP JUMP JUMPDEST PUSH1 0x0 DUP2 PUSH1 0x0 NOT DIV DUP4 GT DUP3 ISZERO ISZERO AND ISZERO PUSH2 0xF83 JUMPI PUSH2 0xF83 PUSH2 0xEA6 JUMP JUMPDEST POP MUL SWAP1 JUMP JUMPDEST PUSH1 0x0 DUP3 PUSH2 0xFA5 JUMPI PUSH4 0x4E487B71 PUSH1 0xE0 SHL PUSH1 0x0 MSTORE PUSH1 0x12 PUSH1 0x4 MSTORE PUSH1 0x24 PUSH1 0x0 REVERT JUMPDEST POP DIV SWAP1 JUMP JUMPDEST PUSH1 0x0 DUP3 DUP3 LT ISZERO PUSH2 0xFBC JUMPI PUSH2 0xFBC PUSH2 0xEA6 JUMP JUMPDEST POP SUB SWAP1 JUMP JUMPDEST PUSH1 0x0 PUSH1 0x20 DUP3 DUP5 SUB SLT ISZERO PUSH2 0xFD3 JUMPI PUSH1 0x0 DUP1 REVERT JUMPDEST DUP2 MLOAD DUP1 ISZERO ISZERO DUP2 EQ PUSH2 0x9B2 JUMPI PUSH1 0x0 DUP1 REVERT JUMPDEST PUSH1 0x0 JUMPDEST DUP4 DUP2 LT ISZERO PUSH2 0xFFE JUMPI DUP2 DUP2 ADD MLOAD DUP4 DUP3 ADD MSTORE PUSH1 0x20 ADD PUSH2 0xFE6 JUMP JUMPDEST DUP4 DUP2 GT ISZERO PUSH2 0x100D JUMPI PUSH1 0x0 DUP5 DUP5 ADD MSTORE JUMPDEST POP POP POP POP JUMP JUMPDEST PUSH1 0x0 DUP3 MLOAD PUSH2 0x1025 DUP2 DUP5 PUSH1 0x20 DUP8 ADD PUSH2 0xFE3 JUMP JUMPDEST SWAP2 SWAP1 SWAP2 ADD SWAP3 SWAP2 POP POP JUMP JUMPDEST PUSH1 0x20 DUP2 MSTORE PUSH1 0x0 DUP3 MLOAD DUP1 PUSH1 0x20 DUP5 ADD MSTORE PUSH2 0x104E DUP2 PUSH1 0x40 DUP6 ADD PUSH1 0x20 DUP8 ADD PUSH2 0xFE3 JUMP JUMPDEST PUSH1 0x1F ADD PUSH1 0x1F NOT AND SWAP2 SWAP1 SWAP2 ADD PUSH1 0x40 ADD SWAP3 SWAP2 POP POP JUMP INVALID LOG2 PUSH5 0x6970667358 0x22 SLT KECCAK256 CALLER PUSH10 0xEB380DB9BE724CAE7235 PUSH5 0x9837492782 0xF7 CREATE 0xD7 0xC0 0xD1 0xD1 SWAP9 DUP11 SUB ORIGIN 0xF9 SLOAD 0xEE NUMBER PUSH5 0x736F6C6343 STOP ADDMOD SIGNEXTEND STOP CALLER LOG2 PUSH5 0x6970667358 0x22 SLT KECCAK256 EQ AND DUP16 0xDF EXTCODECOPY SLOAD PUSH22 0x8D88EA4D81AAB0A77B6A68FBA4E5B179666342B0BBE5 0xAB 0xBE DUP12 PUSH5 0x736F6C6343 STOP ADDMOD SIGNEXTEND STOP CALLER ",
  "sha1": "dd8c7fd06f371a14245f7612368ec18e15bf4d9f",
  "source": "// SPDX-License-Identifier: MIT\n\npragma solidity ^0.8.0;\nimport \"./SmartSplitter.sol\";\n\ncontract SmartSplitterFactory {\n    SmartSplitter[] public smartSplitterArray;\n    mapping(address => uint256) public addressToIndex;\n\n    function createSmartSplitterContract(\n        address[] memory _payGroup,\n        uint256[] memory _payOutRatio\n    ) public {\n        SmartSplitter smartSplitter = new SmartSplitter(\n            _payGroup,\n            _payOutRatio\n        );\n        smartSplitterArray.push(smartSplitter);\n        uint256 arrayIndex = smartSplitterArray.length - 1;\n        addressToIndex[address(smartSplitter)] = arrayIndex;\n    }\n\n    function getAddressFromIndex(uint256 _storageIndex)\n        public\n        view\n        returns (address)\n    {\n        return address(smartSplitterArray[_storageIndex]);\n    }\n\n    function getIndexFromAddress(address _address)\n        public\n        view\n        returns (uint256)\n    {\n        return addressToIndex[_address];\n    }\n\n    function contractsStored() public view returns (uint256) {\n        return smartSplitterArray.length;\n    }\n\n    function callGetContractAddress(uint256 _storageIndex)\n        public\n        view\n        returns (address)\n    {\n        return\n            SmartSplitter((smartSplitterArray[_storageIndex]))\n                .getContractAddress();\n    }\n\n    function callGetBalance(uint256 _storageIndex)\n        public\n        view\n        returns (uint256)\n    {\n        return SmartSplitter((smartSplitterArray[_storageIndex])).getBalance();\n    }\n\n    function callGetPayGroup(uint256 _storageIndex)\n        public\n        view\n        returns (address[] memory)\n    {\n        return SmartSplitter((smartSplitterArray[_storageIndex])).getPayGroup();\n    }\n\n    function callGetPayRatio(uint256 _storageIndex)\n        public\n        view\n        returns (uint256[] memory)\n    {\n        return SmartSplitter((smartSplitterArray[_storageIndex])).getPayRatio();\n    }\n\n    function callAdminReleaseAllPayments(uint256 _storageIndex) public {\n        SmartSplitter((smartSplitterArray[_storageIndex]))\n            .AdminReleaseAllPayments();\n    }\n\n    function callGetOwner(uint256 _storageIndex) public view returns (address) {\n        return SmartSplitter((smartSplitterArray[_storageIndex])).getOwner();\n    }\n\n    function callReleaseOwedPayment(uint256 _storageIndex) public {\n        SmartSplitter((smartSplitterArray[_storageIndex])).releaseOwedPayment();\n    }\n}\n",
  "sourcePath": "contracts/SmartSplitterFactory.sol",
  "type": "contract"
}